{
  "_format": "hh-sol-artifact-1",
  "contractName": "JustArt",
  "sourceName": "contracts/JustArt.sol",
  "abi": [
    {
      "inputs": [
        {
          "components": [
            {
              "internalType": "string",
              "name": "name",
              "type": "string"
            },
            {
              "internalType": "string",
              "name": "description",
              "type": "string"
            },
            {
              "internalType": "string",
              "name": "image",
              "type": "string"
            }
          ],
          "internalType": "struct JustArt.URIData",
          "name": "_URIDataPhase0",
          "type": "tuple"
        },
        {
          "components": [
            {
              "internalType": "string",
              "name": "name",
              "type": "string"
            },
            {
              "internalType": "string",
              "name": "description",
              "type": "string"
            },
            {
              "internalType": "string",
              "name": "image",
              "type": "string"
            }
          ],
          "internalType": "struct JustArt.URIData",
          "name": "_URIDataPhase1",
          "type": "tuple"
        },
        {
          "components": [
            {
              "internalType": "string",
              "name": "name",
              "type": "string"
            },
            {
              "internalType": "string",
              "name": "description",
              "type": "string"
            },
            {
              "internalType": "string",
              "name": "image",
              "type": "string"
            }
          ],
          "internalType": "struct JustArt.URIData",
          "name": "_URIDataPhase2",
          "type": "tuple"
        }
      ],
      "stateMutability": "nonpayable",
      "type": "constructor"
    },
    {
      "anonymous": false,
      "inputs": [
        {
          "indexed": true,
          "internalType": "address",
          "name": "owner",
          "type": "address"
        },
        {
          "indexed": true,
          "internalType": "address",
          "name": "approved",
          "type": "address"
        },
        {
          "indexed": true,
          "internalType": "uint256",
          "name": "tokenId",
          "type": "uint256"
        }
      ],
      "name": "Approval",
      "type": "event"
    },
    {
      "anonymous": false,
      "inputs": [
        {
          "indexed": true,
          "internalType": "address",
          "name": "owner",
          "type": "address"
        },
        {
          "indexed": true,
          "internalType": "address",
          "name": "operator",
          "type": "address"
        },
        {
          "indexed": false,
          "internalType": "bool",
          "name": "approved",
          "type": "bool"
        }
      ],
      "name": "ApprovalForAll",
      "type": "event"
    },
    {
      "anonymous": false,
      "inputs": [
        {
          "indexed": true,
          "internalType": "address",
          "name": "from",
          "type": "address"
        },
        {
          "indexed": true,
          "internalType": "address",
          "name": "to",
          "type": "address"
        },
        {
          "indexed": true,
          "internalType": "uint256",
          "name": "tokenId",
          "type": "uint256"
        }
      ],
      "name": "Transfer",
      "type": "event"
    },
    {
      "inputs": [],
      "name": "DIVISOR",
      "outputs": [
        {
          "internalType": "uint256",
          "name": "",
          "type": "uint256"
        }
      ],
      "stateMutability": "view",
      "type": "function"
    },
    {
      "inputs": [
        {
          "internalType": "address",
          "name": "to",
          "type": "address"
        },
        {
          "internalType": "uint256",
          "name": "tokenId",
          "type": "uint256"
        }
      ],
      "name": "approve",
      "outputs": [],
      "stateMutability": "nonpayable",
      "type": "function"
    },
    {
      "inputs": [
        {
          "internalType": "address",
          "name": "owner",
          "type": "address"
        }
      ],
      "name": "balanceOf",
      "outputs": [
        {
          "internalType": "uint256",
          "name": "",
          "type": "uint256"
        }
      ],
      "stateMutability": "view",
      "type": "function"
    },
    {
      "inputs": [
        {
          "internalType": "uint256",
          "name": "tokenId",
          "type": "uint256"
        }
      ],
      "name": "getApproved",
      "outputs": [
        {
          "internalType": "address",
          "name": "",
          "type": "address"
        }
      ],
      "stateMutability": "view",
      "type": "function"
    },
    {
      "inputs": [
        {
          "internalType": "address",
          "name": "",
          "type": "address"
        }
      ],
      "name": "isAdmin",
      "outputs": [
        {
          "internalType": "bool",
          "name": "",
          "type": "bool"
        }
      ],
      "stateMutability": "view",
      "type": "function"
    },
    {
      "inputs": [
        {
          "internalType": "address",
          "name": "owner",
          "type": "address"
        },
        {
          "internalType": "address",
          "name": "operator",
          "type": "address"
        }
      ],
      "name": "isApprovedForAll",
      "outputs": [
        {
          "internalType": "bool",
          "name": "",
          "type": "bool"
        }
      ],
      "stateMutability": "view",
      "type": "function"
    },
    {
      "inputs": [],
      "name": "maxSupply",
      "outputs": [
        {
          "internalType": "uint256",
          "name": "",
          "type": "uint256"
        }
      ],
      "stateMutability": "view",
      "type": "function"
    },
    {
      "inputs": [
        {
          "internalType": "address",
          "name": "_to",
          "type": "address"
        },
        {
          "internalType": "uint256",
          "name": "_quantity",
          "type": "uint256"
        }
      ],
      "name": "mint",
      "outputs": [],
      "stateMutability": "nonpayable",
      "type": "function"
    },
    {
      "inputs": [],
      "name": "name",
      "outputs": [
        {
          "internalType": "string",
          "name": "",
          "type": "string"
        }
      ],
      "stateMutability": "view",
      "type": "function"
    },
    {
      "inputs": [
        {
          "internalType": "uint256",
          "name": "tokenId",
          "type": "uint256"
        }
      ],
      "name": "ownerOf",
      "outputs": [
        {
          "internalType": "address",
          "name": "",
          "type": "address"
        }
      ],
      "stateMutability": "view",
      "type": "function"
    },
    {
      "inputs": [],
      "name": "reveal",
      "outputs": [],
      "stateMutability": "nonpayable",
      "type": "function"
    },
    {
      "inputs": [
        {
          "internalType": "uint256",
          "name": "_salePrice",
          "type": "uint256"
        }
      ],
      "name": "royaltyInfo",
      "outputs": [
        {
          "internalType": "address",
          "name": "",
          "type": "address"
        },
        {
          "internalType": "uint256",
          "name": "",
          "type": "uint256"
        }
      ],
      "stateMutability": "view",
      "type": "function"
    },
    {
      "inputs": [
        {
          "internalType": "address",
          "name": "from",
          "type": "address"
        },
        {
          "internalType": "address",
          "name": "to",
          "type": "address"
        },
        {
          "internalType": "uint256",
          "name": "tokenId",
          "type": "uint256"
        }
      ],
      "name": "safeTransferFrom",
      "outputs": [],
      "stateMutability": "nonpayable",
      "type": "function"
    },
    {
      "inputs": [
        {
          "internalType": "address",
          "name": "from",
          "type": "address"
        },
        {
          "internalType": "address",
          "name": "to",
          "type": "address"
        },
        {
          "internalType": "uint256",
          "name": "tokenId",
          "type": "uint256"
        },
        {
          "internalType": "bytes",
          "name": "data",
          "type": "bytes"
        }
      ],
      "name": "safeTransferFrom",
      "outputs": [],
      "stateMutability": "nonpayable",
      "type": "function"
    },
    {
      "inputs": [
        {
          "internalType": "address",
          "name": "operator",
          "type": "address"
        },
        {
          "internalType": "bool",
          "name": "approved",
          "type": "bool"
        }
      ],
      "name": "setApprovalForAll",
      "outputs": [],
      "stateMutability": "nonpayable",
      "type": "function"
    },
    {
      "inputs": [
        {
          "internalType": "address payable",
          "name": "_recipient",
          "type": "address"
        },
        {
          "internalType": "uint256",
          "name": "_royaltyPerCent",
          "type": "uint256"
        }
      ],
      "name": "setRoyalties",
      "outputs": [],
      "stateMutability": "nonpayable",
      "type": "function"
    },
    {
      "inputs": [
        {
          "internalType": "uint8",
          "name": "_phase",
          "type": "uint8"
        },
        {
          "components": [
            {
              "internalType": "string",
              "name": "name",
              "type": "string"
            },
            {
              "internalType": "string",
              "name": "description",
              "type": "string"
            },
            {
              "internalType": "string",
              "name": "image",
              "type": "string"
            }
          ],
          "internalType": "struct JustArt.URIData",
          "name": "_updatedURIData",
          "type": "tuple"
        }
      ],
      "name": "setURI",
      "outputs": [],
      "stateMutability": "nonpayable",
      "type": "function"
    },
    {
      "inputs": [
        {
          "internalType": "bytes4",
          "name": "interfaceId",
          "type": "bytes4"
        }
      ],
      "name": "supportsInterface",
      "outputs": [
        {
          "internalType": "bool",
          "name": "",
          "type": "bool"
        }
      ],
      "stateMutability": "view",
      "type": "function"
    },
    {
      "inputs": [
        {
          "internalType": "uint256[]",
          "name": "_tokenIds",
          "type": "uint256[]"
        }
      ],
      "name": "swap",
      "outputs": [],
      "stateMutability": "nonpayable",
      "type": "function"
    },
    {
      "inputs": [],
      "name": "swappedTokenId",
      "outputs": [
        {
          "internalType": "uint256",
          "name": "",
          "type": "uint256"
        }
      ],
      "stateMutability": "view",
      "type": "function"
    },
    {
      "inputs": [],
      "name": "symbol",
      "outputs": [
        {
          "internalType": "string",
          "name": "",
          "type": "string"
        }
      ],
      "stateMutability": "view",
      "type": "function"
    },
    {
      "inputs": [
        {
          "internalType": "address",
          "name": "_admin",
          "type": "address"
        }
      ],
      "name": "toggleAdmin",
      "outputs": [],
      "stateMutability": "nonpayable",
      "type": "function"
    },
    {
      "inputs": [],
      "name": "tokenId",
      "outputs": [
        {
          "internalType": "uint256",
          "name": "",
          "type": "uint256"
        }
      ],
      "stateMutability": "view",
      "type": "function"
    },
    {
      "inputs": [
        {
          "internalType": "uint256",
          "name": "_tokenId",
          "type": "uint256"
        }
      ],
      "name": "tokenURI",
      "outputs": [
        {
          "internalType": "string",
          "name": "",
          "type": "string"
        }
      ],
      "stateMutability": "view",
      "type": "function"
    },
    {
      "inputs": [
        {
          "internalType": "uint256",
          "name": "",
          "type": "uint256"
        }
      ],
      "name": "tokenVisuals",
      "outputs": [
        {
          "internalType": "uint256",
          "name": "",
          "type": "uint256"
        }
      ],
      "stateMutability": "view",
      "type": "function"
    },
    {
      "inputs": [
        {
          "internalType": "address",
          "name": "from",
          "type": "address"
        },
        {
          "internalType": "address",
          "name": "to",
          "type": "address"
        },
        {
          "internalType": "uint256",
          "name": "tokenId",
          "type": "uint256"
        }
      ],
      "name": "transferFrom",
      "outputs": [],
      "stateMutability": "nonpayable",
      "type": "function"
    },
    {
      "inputs": [
        {
          "internalType": "address",
          "name": "_recipient",
          "type": "address"
        }
      ],
      "name": "withdraw",
      "outputs": [],
      "stateMutability": "nonpayable",
      "type": "function"
    }
  ],
  "bytecode": "0x60c0604052612ee060805261271060a0523480156200001c575f80fd5b5060405162002ea038038062002ea08339810160408190526200003f91620004dc565b60405180604001604052806007815260200166129d5cdd105c9d60ca1b81525060405180604001604052806007815260200166129554d510549560ca1b815250815f90816200008f9190620005f1565b5060016200009e8282620005f1565b505050604051806080016040528060405180606001604052806024815260200162002e7c60249139815260200160405180604001604052806012815260200171111610113232b9b1b934b83a34b7b7111d1160711b81525081526020016040518060400160405280600c81526020016b1116101134b6b0b3b2911d1160a11b815250815260200160405180604001604052806002815260200161227d60f01b815250815250600b9060046200015592919062000287565b50335f8181526016602052604090208054600160ff19909116811790915560068054610100600160a81b031916610100909302929092179091556102ee6009556007819055608051620001a891620006bd565b60085582518390600d908190620001c09082620005f1565b5060208201516001820190620001d79082620005f1565b5060408201516002820190620001ee9082620005f1565b505082518391506010908190620002069082620005f1565b50602082015160018201906200021d9082620005f1565b5060408201516002820190620002349082620005f1565b5050815182915060139081906200024c9082620005f1565b5060208201516001820190620002639082620005f1565b50604082015160028201906200027a9082620005f1565b50905050505050620006e3565b828054828255905f5260205f20908101928215620002d0579160200282015b82811115620002d05782518290620002bf9082620005f1565b5091602001919060010190620002a6565b50620002de929150620002e2565b5090565b80821115620002de575f620002f8828262000302565b50600101620002e2565b508054620003109062000567565b5f825580601f1062000320575050565b601f0160209004905f5260205f20908101906200033e919062000341565b50565b5b80821115620002de575f815560010162000342565b634e487b7160e01b5f52604160045260245ffd5b604051601f8201601f191681016001600160401b038111828210171562000396576200039662000357565b604052919050565b5f82601f830112620003ae575f80fd5b81516001600160401b03811115620003ca57620003ca62000357565b6020620003e0601f8301601f191682016200036b565b8281528582848701011115620003f4575f80fd5b5f5b8381101562000413578581018301518282018401528201620003f6565b505f928101909101919091529392505050565b5f6060828403121562000437575f80fd5b604051606081016001600160401b0380821183831017156200045d576200045d62000357565b81604052829350845191508082111562000475575f80fd5b62000483868387016200039e565b8352602085015191508082111562000499575f80fd5b620004a7868387016200039e565b60208401526040850151915080821115620004c0575f80fd5b50620004cf858286016200039e565b6040830152505092915050565b5f805f60608486031215620004ef575f80fd5b83516001600160401b038082111562000506575f80fd5b620005148783880162000426565b945060208601519150808211156200052a575f80fd5b620005388783880162000426565b935060408601519150808211156200054e575f80fd5b506200055d8682870162000426565b9150509250925092565b600181811c908216806200057c57607f821691505b6020821081036200059b57634e487b7160e01b5f52602260045260245ffd5b50919050565b601f821115620005ec57805f5260205f20601f840160051c81016020851015620005c85750805b601f840160051c820191505b81811015620005e9575f8155600101620005d4565b50505b505050565b81516001600160401b038111156200060d576200060d62000357565b62000625816200061e845462000567565b84620005a1565b602080601f8311600181146200065b575f8415620006435750858301515b5f19600386901b1c1916600185901b178555620006b5565b5f85815260208120601f198616915b828110156200068b578886015182559484019460019091019084016200066a565b5085821015620006a957878501515f19600388901b60f8161c191681555b505060018460011b0185555b505050505050565b80820180821115620006dd57634e487b7160e01b5f52601160045260245ffd5b92915050565b60805160a0516127626200071a5f395f818161028201526112b801525f81816103db015281816108060152610eca01526127625ff3fe608060405234801561000f575f80fd5b50600436106101b0575f3560e01c806370a08231116100f3578063c87b56dd11610093578063d5abeb011161006e578063d5abeb01146103d6578063e985e9c5146103fd578063ee3617bf14610438578063f1b4ae4814610441575f80fd5b8063c87b56dd1461037e578063cef6d36814610391578063d3b86141146103c3575f80fd5b80639af58b30116100ce5780639af58b3014610331578063a22cb46514610350578063a475b5dd14610363578063b88d4fde1461036b575f80fd5b806370a08231146103035780638c7ea24b1461031657806395d89b4114610329575f80fd5b806324d7806c1161015e57806342842e0e1161013957806342842e0e146102b757806348bf630b146102ca57806351cff8d9146102dd5780636352211e146102f0575f80fd5b806324d7806c1461025b5780633410fe6e1461027d57806340c10f19146102a4575f80fd5b8063095ea7b31161018e578063095ea7b31461021c57806317d70f7c1461023157806323b872dd14610248575f80fd5b806301ffc9a7146101b457806306fdde03146101dc578063081812fc146101f1575b5f80fd5b6101c76101c2366004611f43565b610454565b60405190151581526020015b60405180910390f35b6101e46104a7565b6040516101d39190611fb2565b6102046101ff366004611fc4565b610536565b6040516001600160a01b0390911681526020016101d3565b61022f61022a366004611fef565b61055b565b005b61023a60075481565b6040519081526020016101d3565b61022f610256366004612019565b6106ad565b6101c7610269366004612057565b60166020525f908152604090205460ff1681565b61023a7f000000000000000000000000000000000000000000000000000000000000000081565b61022f6102b2366004611fef565b610724565b61022f6102c5366004612019565b6108e2565b61022f6102d8366004612072565b6108fc565b61022f6102eb366004612057565b610ad8565b6102046102fe366004611fc4565b610b77565b61023a610311366004612057565b610bdb565b61022f610324366004611fef565b610c73565b6101e4610d1f565b61023a61033f366004611fc4565b600a6020525f908152604090205481565b61022f61035e3660046120e1565b610d2e565b61022f610d39565b61022f6103793660046121cc565b610db1565b6101e461038c366004611fc4565b610e2f565b6103a461039f366004611fc4565b611286565b604080516001600160a01b0390931683526020830191909152016101d3565b61022f6103d1366004612057565b611302565b61023a7f000000000000000000000000000000000000000000000000000000000000000081565b6101c761040b366004612247565b6001600160a01b039182165f90815260056020908152604080832093909416825291909152205460ff1690565b61023a60085481565b61022f61044f366004612291565b611393565b5f61045e8261147a565b8061049257506001600160e01b031982167f2a55205a00000000000000000000000000000000000000000000000000000000145b806104a157506104a18261147a565b92915050565b60605f80546104b590612359565b80601f01602080910402602001604051908101604052809291908181526020018280546104e190612359565b801561052c5780601f106105035761010080835404028352916020019161052c565b820191905f5260205f20905b81548152906001019060200180831161050f57829003601f168201915b5050505050905090565b5f61054082611514565b505f908152600460205260409020546001600160a01b031690565b5f61056582610b77565b9050806001600160a01b0316836001600160a01b0316036105f35760405162461bcd60e51b815260206004820152602160248201527f4552433732313a20617070726f76616c20746f2063757272656e74206f776e6560448201527f720000000000000000000000000000000000000000000000000000000000000060648201526084015b60405180910390fd5b336001600160a01b038216148061062c57506001600160a01b0381165f90815260056020908152604080832033845290915290205460ff165b61069e5760405162461bcd60e51b815260206004820152603d60248201527f4552433732313a20617070726f76652063616c6c6572206973206e6f7420746f60448201527f6b656e206f776e6572206f7220617070726f76656420666f7220616c6c00000060648201526084016105ea565b6106a8838361157a565b505050565b6106b733826115f4565b6107195760405162461bcd60e51b815260206004820152602d60248201527f4552433732313a2063616c6c6572206973206e6f7420746f6b656e206f776e6560448201526c1c881bdc88185c1c1c9bdd9959609a1b60648201526084016105ea565b6106a8838383611671565b335f9081526016602052604090205460ff1661078d5760405162461bcd60e51b815260206004820152602260248201527f4f6e6c792061646d696e732063616e20706572666f6d2074686973206163746960448201526137b760f11b60648201526084016105ea565b60648111156108045760405162461bcd60e51b815260206004820152602260248201527f4d696e74206c696d6974656420746f2031303020746f6b656e73206174206f6e60448201527f636500000000000000000000000000000000000000000000000000000000000060648201526084016105ea565b7f000000000000000000000000000000000000000000000000000000000000000081600160075461083591906123a5565b61083f91906123b8565b111561088d5760405162461bcd60e51b815260206004820152601260248201527f4d617820737570706c792072656163686564000000000000000000000000000060448201526064016105ea565b5f5b818110156106a8575f6108a26004611875565b600780545f908152600a60205260409020829055549091506108c59085906118d3565b60078054905f6108d4836123cb565b90915550505060010161088f565b6106a883838360405180602001604052805f815250610db1565b6109076004826123f7565b156109545760405162461bcd60e51b815260206004820152601960248201527f5265717569726573203420746f6b656e7320746f20737761700000000000000060448201526064016105ea565b60648111156109cb5760405162461bcd60e51b815260206004820152602560248201527f4d61782031303020746f6b656e732063616e206265207377617070656420617460448201527f206f6e636500000000000000000000000000000000000000000000000000000060648201526084016105ea565b5f5b818110156106a857336109f78484848181106109eb576109eb61240a565b90506020020135610b77565b6001600160a01b031614610a4d5760405162461bcd60e51b815260206004820152600d60248201527f4e6f7420746865206f776e65720000000000000000000000000000000000000060448201526064016105ea565b610a6e838383818110610a6257610a6261240a565b90506020020135611a68565b6004610a7b8260016123b8565b610a8591906123f7565b5f03610ad0575f610a966014611875565b6007545f908152600a60205260409020819055600854909150610aba9033906118d3565b60088054905f610ac9836123cb565b9190505550505b6001016109cd565b335f9081526016602052604090205460ff16610b415760405162461bcd60e51b815260206004820152602260248201527f4f6e6c792061646d696e732063616e20706572666f6d2074686973206163746960448201526137b760f11b60648201526084016105ea565b6040516001600160a01b038216904780156108fc02915f818181858888f19350505050158015610b73573d5f803e3d5ffd5b5050565b5f818152600260205260408120546001600160a01b0316806104a15760405162461bcd60e51b815260206004820152601860248201527f4552433732313a20696e76616c696420746f6b656e204944000000000000000060448201526064016105ea565b5f6001600160a01b038216610c585760405162461bcd60e51b815260206004820152602960248201527f4552433732313a2061646472657373207a65726f206973206e6f74206120766160448201527f6c6964206f776e6572000000000000000000000000000000000000000000000060648201526084016105ea565b506001600160a01b03165f9081526003602052604090205490565b335f9081526016602052604090205460ff16610cdc5760405162461bcd60e51b815260206004820152602260248201527f4f6e6c792061646d696e732063616e20706572666f6d2074686973206163746960448201526137b760f11b60648201526084016105ea565b600680546001600160a01b03909316610100027fffffffffffffffffffffff0000000000000000000000000000000000000000ff90931692909217909155600955565b6060600180546104b590612359565b610b73338383611b07565b335f9081526016602052604090205460ff16610da25760405162461bcd60e51b815260206004820152602260248201527f4f6e6c792061646d696e732063616e20706572666f6d2074686973206163746960448201526137b760f11b60648201526084016105ea565b6006805460ff19166001179055565b610dbb33836115f4565b610e1d5760405162461bcd60e51b815260206004820152602d60248201527f4552433732313a2063616c6c6572206973206e6f7420746f6b656e206f776e6560448201526c1c881bdc88185c1c1c9bdd9959609a1b60648201526084016105ea565b610e2984848484611bd4565b50505050565b5f818152600260205260409020546060906001600160a01b0316610ebb5760405162461bcd60e51b815260206004820152602f60248201527f4552433732314d657461646174613a2055524920717565727920666f72206e6f60448201527f6e6578697374656e7420746f6b656e000000000000000000000000000000000060648201526084016105ea565b6006545f9060ff1615610efe577f0000000000000000000000000000000000000000000000000000000000000000831115610ef7576013610f01565b6010610f01565b600d5b6040518060600160405290815f82018054610f1b90612359565b80601f0160208091040260200160405190810160405280929190818152602001828054610f4790612359565b8015610f925780601f10610f6957610100808354040283529160200191610f92565b820191905f5260205f20905b815481529060010190602001808311610f7557829003601f168201915b50505050508152602001600182018054610fab90612359565b80601f0160208091040260200160405190810160405280929190818152602001828054610fd790612359565b80156110225780601f10610ff957610100808354040283529160200191611022565b820191905f5260205f20905b81548152906001019060200180831161100557829003601f168201915b5050505050815260200160028201805461103b90612359565b80601f016020809104026020016040519081016040528092919081815260200182805461106790612359565b80156110b25780601f10611089576101008083540402835291602001916110b2565b820191905f5260205f20905b81548152906001019060200180831161109557829003601f168201915b50505050508152505090505f815f01516110cb85611c5d565b6040516020016110dc92919061241e565b60408051601f198184030181529190526006549091505f9060ff161561113e576040808401515f878152600a602052919091205461111990611c5d565b60405160200161112a92919061244c565b604051602081830303815290604052611163565b826040015160405160200161115391906124a2565b6040516020818303038152906040525b90505f600b5f815481106111795761117961240a565b905f5260205f20018360405160200161119392919061252c565b604051602081830303815290604052600b6001815481106111b6576111b661240a565b905f5260205f200185602001516040516020016111d492919061252c565b604051602081830303815290604052600b6002815481106111f7576111f761240a565b905f5260205f20018460405160200161121192919061252c565b604051602081830303815290604052600b6003815481106112345761123461240a565b905f5260205f200160405160200161124c9190612547565b60408051601f198184030181529082905261126c94939291602001612552565b60408051601f198184030181529190529695505050505050565b6006545f90819061010090046001600160a01b0316156112f857600660019054906101000a90046001600160a01b03167f0000000000000000000000000000000000000000000000000000000000000000600954856112e591906125a8565b6112ef91906125bf565b91509150915091565b505f928392509050565b335f9081526016602052604090205460ff1661136b5760405162461bcd60e51b815260206004820152602260248201527f4f6e6c792061646d696e732063616e20706572666f6d2074686973206163746960448201526137b760f11b60648201526084016105ea565b6001600160a01b03165f908152601660205260409020805460ff19811660ff90911615179055565b335f9081526016602052604090205460ff166113fc5760405162461bcd60e51b815260206004820152602260248201527f4f6e6c792061646d696e732063616e20706572666f6d2074686973206163746960448201526137b760f11b60648201526084016105ea565b60ff821615611467578160ff16600114611454578051819060139081906114239082612616565b50602082015160018201906114389082612616565b506040820151600282019061144d9082612616565b5050505050565b8051819060109081906114239082612616565b80518190600d9081906114239082612616565b5f6001600160e01b031982167f80ac58cd0000000000000000000000000000000000000000000000000000000014806114dc57506001600160e01b031982167f5b5e139f00000000000000000000000000000000000000000000000000000000145b806104a157507f01ffc9a7000000000000000000000000000000000000000000000000000000006001600160e01b03198316146104a1565b5f818152600260205260409020546001600160a01b03166115775760405162461bcd60e51b815260206004820152601860248201527f4552433732313a20696e76616c696420746f6b656e204944000000000000000060448201526064016105ea565b50565b5f818152600460205260409020805473ffffffffffffffffffffffffffffffffffffffff19166001600160a01b03841690811790915581906115bb82610b77565b6001600160a01b03167f8c5be1e5ebec7d5bd14f71427d1e84f3dd0314c0f7b2291e5b200ac8c7c3b92560405160405180910390a45050565b5f806115ff83610b77565b9050806001600160a01b0316846001600160a01b0316148061164557506001600160a01b038082165f9081526005602090815260408083209388168352929052205460ff165b806116695750836001600160a01b031661165e84610536565b6001600160a01b0316145b949350505050565b826001600160a01b031661168482610b77565b6001600160a01b0316146116e85760405162461bcd60e51b815260206004820152602560248201527f4552433732313a207472616e736665722066726f6d20696e636f72726563742060448201526437bbb732b960d91b60648201526084016105ea565b6001600160a01b0382166117635760405162461bcd60e51b8152602060048201526024808201527f4552433732313a207472616e7366657220746f20746865207a65726f2061646460448201527f726573730000000000000000000000000000000000000000000000000000000060648201526084016105ea565b826001600160a01b031661177682610b77565b6001600160a01b0316146117da5760405162461bcd60e51b815260206004820152602560248201527f4552433732313a207472616e736665722066726f6d20696e636f72726563742060448201526437bbb732b960d91b60648201526084016105ea565b5f818152600460209081526040808320805473ffffffffffffffffffffffffffffffffffffffff199081169091556001600160a01b038781168086526003855283862080545f1901905590871680865283862080546001019055868652600290945282852080549092168417909155905184937fddf252ad1be2c89b69c2b068fc378daa952ba7f163c4a11628f55a4df523b3ef91a4505050565b5f8142600754336040516020016118b193929190928352602083019190915260601b6bffffffffffffffffffffffff1916604082015260540190565b604051602081830303815290604052805190602001205f1c6104a191906123f7565b6001600160a01b0382166119295760405162461bcd60e51b815260206004820181905260248201527f4552433732313a206d696e7420746f20746865207a65726f206164647265737360448201526064016105ea565b5f818152600260205260409020546001600160a01b03161561198d5760405162461bcd60e51b815260206004820152601c60248201527f4552433732313a20746f6b656e20616c7265616479206d696e7465640000000060448201526064016105ea565b5f818152600260205260409020546001600160a01b0316156119f15760405162461bcd60e51b815260206004820152601c60248201527f4552433732313a20746f6b656e20616c7265616479206d696e7465640000000060448201526064016105ea565b6001600160a01b0382165f818152600360209081526040808320805460010190558483526002909152808220805473ffffffffffffffffffffffffffffffffffffffff19168417905551839291907fddf252ad1be2c89b69c2b068fc378daa952ba7f163c4a11628f55a4df523b3ef908290a45050565b5f611a7282610b77565b9050611a7d82610b77565b5f838152600460209081526040808320805473ffffffffffffffffffffffffffffffffffffffff199081169091556001600160a01b0385168085526003845282852080545f190190558785526002909352818420805490911690555192935084927fddf252ad1be2c89b69c2b068fc378daa952ba7f163c4a11628f55a4df523b3ef908390a45050565b816001600160a01b0316836001600160a01b031603611b685760405162461bcd60e51b815260206004820152601960248201527f4552433732313a20617070726f766520746f2063616c6c65720000000000000060448201526064016105ea565b6001600160a01b038381165f81815260056020908152604080832094871680845294825291829020805460ff191686151590811790915591519182527f17307eab39ab6107e8899845ad3d59bd9653f200f220920489ca2b5937696c31910160405180910390a3505050565b611bdf848484611671565b611beb84848484611cfa565b610e295760405162461bcd60e51b815260206004820152603260248201527f4552433732313a207472616e7366657220746f206e6f6e20455243373231526560448201527f63656976657220696d706c656d656e746572000000000000000000000000000060648201526084016105ea565b60605f611c6983611e4d565b60010190505f8167ffffffffffffffff811115611c8857611c8861211c565b6040519080825280601f01601f191660200182016040528015611cb2576020820181803683370190505b5090508181016020015b5f19017f3031323334353637383961626364656600000000000000000000000000000000600a86061a8153600a8504945084611cbc57509392505050565b5f6001600160a01b0384163b15611e4257604051630a85bd0160e11b81526001600160a01b0385169063150b7a0290611d3d9033908990889088906004016126d6565b6020604051808303815f875af1925050508015611d77575060408051601f3d908101601f19168201909252611d7491810190612711565b60015b611e28573d808015611da4576040519150601f19603f3d011682016040523d82523d5f602084013e611da9565b606091505b5080515f03611e205760405162461bcd60e51b815260206004820152603260248201527f4552433732313a207472616e7366657220746f206e6f6e20455243373231526560448201527f63656976657220696d706c656d656e746572000000000000000000000000000060648201526084016105ea565b805181602001fd5b6001600160e01b031916630a85bd0160e11b149050611669565b506001949350505050565b5f807a184f03e93ff9f4daa797ed6e38ed64bf6a1f0100000000000000008310611e95577a184f03e93ff9f4daa797ed6e38ed64bf6a1f010000000000000000830492506040015b6d04ee2d6d415b85acef81000000008310611ec1576d04ee2d6d415b85acef8100000000830492506020015b662386f26fc100008310611edf57662386f26fc10000830492506010015b6305f5e1008310611ef7576305f5e100830492506008015b6127108310611f0b57612710830492506004015b60648310611f1d576064830492506002015b600a83106104a15760010192915050565b6001600160e01b031981168114611577575f80fd5b5f60208284031215611f53575f80fd5b8135611f5e81611f2e565b9392505050565b5f5b83811015611f7f578181015183820152602001611f67565b50505f910152565b5f8151808452611f9e816020860160208601611f65565b601f01601f19169290920160200192915050565b602081525f611f5e6020830184611f87565b5f60208284031215611fd4575f80fd5b5035919050565b6001600160a01b0381168114611577575f80fd5b5f8060408385031215612000575f80fd5b823561200b81611fdb565b946020939093013593505050565b5f805f6060848603121561202b575f80fd5b833561203681611fdb565b9250602084013561204681611fdb565b929592945050506040919091013590565b5f60208284031215612067575f80fd5b8135611f5e81611fdb565b5f8060208385031215612083575f80fd5b823567ffffffffffffffff8082111561209a575f80fd5b818501915085601f8301126120ad575f80fd5b8135818111156120bb575f80fd5b8660208260051b85010111156120cf575f80fd5b60209290920196919550909350505050565b5f80604083850312156120f2575f80fd5b82356120fd81611fdb565b915060208301358015158114612111575f80fd5b809150509250929050565b634e487b7160e01b5f52604160045260245ffd5b6040516060810167ffffffffffffffff811182821017156121535761215361211c565b60405290565b5f67ffffffffffffffff808411156121735761217361211c565b604051601f8501601f19908116603f0116810190828211818310171561219b5761219b61211c565b816040528093508581528686860111156121b3575f80fd5b858560208301375f602087830101525050509392505050565b5f805f80608085870312156121df575f80fd5b84356121ea81611fdb565b935060208501356121fa81611fdb565b925060408501359150606085013567ffffffffffffffff81111561221c575f80fd5b8501601f8101871361222c575f80fd5b61223b87823560208401612159565b91505092959194509250565b5f8060408385031215612258575f80fd5b823561226381611fdb565b9150602083013561211181611fdb565b5f82601f830112612282575f80fd5b611f5e83833560208501612159565b5f80604083850312156122a2575f80fd5b823560ff811681146122b2575f80fd5b9150602083013567ffffffffffffffff808211156122ce575f80fd5b90840190606082870312156122e1575f80fd5b6122e9612130565b8235828111156122f7575f80fd5b61230388828601612273565b825250602083013582811115612317575f80fd5b61232388828601612273565b60208301525060408301358281111561233a575f80fd5b61234688828601612273565b6040830152508093505050509250929050565b600181811c9082168061236d57607f821691505b60208210810361238b57634e487b7160e01b5f52602260045260245ffd5b50919050565b634e487b7160e01b5f52601160045260245ffd5b818103818111156104a1576104a1612391565b808201808211156104a1576104a1612391565b5f600182016123dc576123dc612391565b5060010190565b634e487b7160e01b5f52601260045260245ffd5b5f82612405576124056123e3565b500690565b634e487b7160e01b5f52603260045260245ffd5b5f835161242f818460208801611f65565b835190830190612443818360208801611f65565b01949350505050565b5f835161245d818460208801611f65565b835190830190612471818360208801611f65565b7f2e706e67000000000000000000000000000000000000000000000000000000009101908152600401949350505050565b5f82516124b3818460208701611f65565b9190910192915050565b5f81546124c981612359565b600182811680156124e157600181146124f657612522565b60ff1984168752821515830287019450612522565b855f526020805f205f5b858110156125195781548a820152908401908201612500565b50505082870194505b5050505092915050565b5f61253782856124bd565b8351612443818360208801611f65565b5f611f5e82846124bd565b5f8551612563818460208a01611f65565b855190830190612577818360208a01611f65565b855191019061258a818360208901611f65565b845191019061259d818360208801611f65565b019695505050505050565b80820281158282048414176104a1576104a1612391565b5f826125cd576125cd6123e3565b500490565b601f8211156106a857805f5260205f20601f840160051c810160208510156125f75750805b601f840160051c820191505b8181101561144d575f8155600101612603565b815167ffffffffffffffff8111156126305761263061211c565b6126448161263e8454612359565b846125d2565b602080601f831160018114612677575f84156126605750858301515b5f19600386901b1c1916600185901b1785556126ce565b5f85815260208120601f198616915b828110156126a557888601518255948401946001909101908401612686565b50858210156126c257878501515f19600388901b60f8161c191681555b505060018460011b0185555b505050505050565b5f6001600160a01b038087168352808616602084015250836040830152608060608301526127076080830184611f87565b9695505050505050565b5f60208284031215612721575f80fd5b8151611f5e81611f2e56fea2646970667358221220907d33be518a12f6efe2e7f9d3f8aa74bcb139a6ee6a596779eb6862e9e50b1564736f6c63430008180033646174613a6170706c69636174696f6e2f6a736f6e3b757466382c7b226e616d65223a22",
  "linkReferences": {},
  "deployedLinkReferences": {}
}