{
  "_format": "hh-sol-artifact-1",
  "contractName": "JustArt",
  "sourceName": "contracts/JustArt.sol",
  "abi": [
    {
      "inputs": [
        {
          "components": [
            {
              "internalType": "string",
              "name": "name",
              "type": "string"
            },
            {
              "internalType": "string",
              "name": "description",
              "type": "string"
            },
            {
              "internalType": "string",
              "name": "image",
              "type": "string"
            }
          ],
          "internalType": "struct JustArt.URIData",
          "name": "_URIDataPhase0",
          "type": "tuple"
        },
        {
          "components": [
            {
              "internalType": "string",
              "name": "name",
              "type": "string"
            },
            {
              "internalType": "string",
              "name": "description",
              "type": "string"
            },
            {
              "internalType": "string",
              "name": "image",
              "type": "string"
            }
          ],
          "internalType": "struct JustArt.URIData",
          "name": "_URIDataPhase1",
          "type": "tuple"
        },
        {
          "components": [
            {
              "internalType": "string",
              "name": "name",
              "type": "string"
            },
            {
              "internalType": "string",
              "name": "description",
              "type": "string"
            },
            {
              "internalType": "string",
              "name": "image",
              "type": "string"
            }
          ],
          "internalType": "struct JustArt.URIData",
          "name": "_URIDataPhase2",
          "type": "tuple"
        },
        {
          "components": [
            {
              "internalType": "string",
              "name": "name",
              "type": "string"
            },
            {
              "internalType": "string",
              "name": "description",
              "type": "string"
            },
            {
              "internalType": "string",
              "name": "image",
              "type": "string"
            }
          ],
          "internalType": "struct JustArt.URIData",
          "name": "_URIDataReceipt",
          "type": "tuple"
        }
      ],
      "stateMutability": "nonpayable",
      "type": "constructor"
    },
    {
      "anonymous": false,
      "inputs": [
        {
          "indexed": true,
          "internalType": "address",
          "name": "owner",
          "type": "address"
        },
        {
          "indexed": true,
          "internalType": "address",
          "name": "approved",
          "type": "address"
        },
        {
          "indexed": true,
          "internalType": "uint256",
          "name": "tokenId",
          "type": "uint256"
        }
      ],
      "name": "Approval",
      "type": "event"
    },
    {
      "anonymous": false,
      "inputs": [
        {
          "indexed": true,
          "internalType": "address",
          "name": "owner",
          "type": "address"
        },
        {
          "indexed": true,
          "internalType": "address",
          "name": "operator",
          "type": "address"
        },
        {
          "indexed": false,
          "internalType": "bool",
          "name": "approved",
          "type": "bool"
        }
      ],
      "name": "ApprovalForAll",
      "type": "event"
    },
    {
      "anonymous": false,
      "inputs": [
        {
          "indexed": true,
          "internalType": "address",
          "name": "from",
          "type": "address"
        },
        {
          "indexed": true,
          "internalType": "address",
          "name": "to",
          "type": "address"
        },
        {
          "indexed": true,
          "internalType": "uint256",
          "name": "tokenId",
          "type": "uint256"
        }
      ],
      "name": "Transfer",
      "type": "event"
    },
    {
      "inputs": [],
      "name": "DIVISOR",
      "outputs": [
        {
          "internalType": "uint256",
          "name": "",
          "type": "uint256"
        }
      ],
      "stateMutability": "view",
      "type": "function"
    },
    {
      "inputs": [
        {
          "internalType": "address",
          "name": "to",
          "type": "address"
        },
        {
          "internalType": "uint256",
          "name": "tokenId",
          "type": "uint256"
        }
      ],
      "name": "approve",
      "outputs": [],
      "stateMutability": "nonpayable",
      "type": "function"
    },
    {
      "inputs": [
        {
          "internalType": "address",
          "name": "owner",
          "type": "address"
        }
      ],
      "name": "balanceOf",
      "outputs": [
        {
          "internalType": "uint256",
          "name": "",
          "type": "uint256"
        }
      ],
      "stateMutability": "view",
      "type": "function"
    },
    {
      "inputs": [],
      "name": "enableSwaps",
      "outputs": [],
      "stateMutability": "nonpayable",
      "type": "function"
    },
    {
      "inputs": [
        {
          "internalType": "uint256",
          "name": "tokenId",
          "type": "uint256"
        }
      ],
      "name": "getApproved",
      "outputs": [
        {
          "internalType": "address",
          "name": "",
          "type": "address"
        }
      ],
      "stateMutability": "view",
      "type": "function"
    },
    {
      "inputs": [
        {
          "internalType": "address",
          "name": "",
          "type": "address"
        }
      ],
      "name": "isAdmin",
      "outputs": [
        {
          "internalType": "bool",
          "name": "",
          "type": "bool"
        }
      ],
      "stateMutability": "view",
      "type": "function"
    },
    {
      "inputs": [
        {
          "internalType": "address",
          "name": "owner",
          "type": "address"
        },
        {
          "internalType": "address",
          "name": "operator",
          "type": "address"
        }
      ],
      "name": "isApprovedForAll",
      "outputs": [
        {
          "internalType": "bool",
          "name": "",
          "type": "bool"
        }
      ],
      "stateMutability": "view",
      "type": "function"
    },
    {
      "inputs": [],
      "name": "maxSupply",
      "outputs": [
        {
          "internalType": "uint256",
          "name": "",
          "type": "uint256"
        }
      ],
      "stateMutability": "view",
      "type": "function"
    },
    {
      "inputs": [
        {
          "internalType": "address",
          "name": "_to",
          "type": "address"
        },
        {
          "internalType": "uint256",
          "name": "_quantity",
          "type": "uint256"
        }
      ],
      "name": "mint",
      "outputs": [],
      "stateMutability": "nonpayable",
      "type": "function"
    },
    {
      "inputs": [],
      "name": "name",
      "outputs": [
        {
          "internalType": "string",
          "name": "",
          "type": "string"
        }
      ],
      "stateMutability": "view",
      "type": "function"
    },
    {
      "inputs": [
        {
          "internalType": "uint256",
          "name": "tokenId",
          "type": "uint256"
        }
      ],
      "name": "ownerOf",
      "outputs": [
        {
          "internalType": "address",
          "name": "",
          "type": "address"
        }
      ],
      "stateMutability": "view",
      "type": "function"
    },
    {
      "inputs": [
        {
          "internalType": "uint256",
          "name": "",
          "type": "uint256"
        }
      ],
      "name": "receiptVisuals",
      "outputs": [
        {
          "internalType": "uint256",
          "name": "",
          "type": "uint256"
        }
      ],
      "stateMutability": "view",
      "type": "function"
    },
    {
      "inputs": [],
      "name": "reveal",
      "outputs": [],
      "stateMutability": "nonpayable",
      "type": "function"
    },
    {
      "inputs": [
        {
          "internalType": "uint256",
          "name": "_salePrice",
          "type": "uint256"
        }
      ],
      "name": "royaltyInfo",
      "outputs": [
        {
          "internalType": "address",
          "name": "",
          "type": "address"
        },
        {
          "internalType": "uint256",
          "name": "",
          "type": "uint256"
        }
      ],
      "stateMutability": "view",
      "type": "function"
    },
    {
      "inputs": [
        {
          "internalType": "address",
          "name": "from",
          "type": "address"
        },
        {
          "internalType": "address",
          "name": "to",
          "type": "address"
        },
        {
          "internalType": "uint256",
          "name": "tokenId",
          "type": "uint256"
        }
      ],
      "name": "safeTransferFrom",
      "outputs": [],
      "stateMutability": "nonpayable",
      "type": "function"
    },
    {
      "inputs": [
        {
          "internalType": "address",
          "name": "from",
          "type": "address"
        },
        {
          "internalType": "address",
          "name": "to",
          "type": "address"
        },
        {
          "internalType": "uint256",
          "name": "tokenId",
          "type": "uint256"
        },
        {
          "internalType": "bytes",
          "name": "data",
          "type": "bytes"
        }
      ],
      "name": "safeTransferFrom",
      "outputs": [],
      "stateMutability": "nonpayable",
      "type": "function"
    },
    {
      "inputs": [
        {
          "internalType": "address",
          "name": "operator",
          "type": "address"
        },
        {
          "internalType": "bool",
          "name": "approved",
          "type": "bool"
        }
      ],
      "name": "setApprovalForAll",
      "outputs": [],
      "stateMutability": "nonpayable",
      "type": "function"
    },
    {
      "inputs": [
        {
          "internalType": "address payable",
          "name": "_recipient",
          "type": "address"
        },
        {
          "internalType": "uint256",
          "name": "_royaltyPerCent",
          "type": "uint256"
        }
      ],
      "name": "setRoyalties",
      "outputs": [],
      "stateMutability": "nonpayable",
      "type": "function"
    },
    {
      "inputs": [
        {
          "internalType": "uint8",
          "name": "_phase",
          "type": "uint8"
        },
        {
          "components": [
            {
              "internalType": "string",
              "name": "name",
              "type": "string"
            },
            {
              "internalType": "string",
              "name": "description",
              "type": "string"
            },
            {
              "internalType": "string",
              "name": "image",
              "type": "string"
            }
          ],
          "internalType": "struct JustArt.URIData",
          "name": "_updatedURIData",
          "type": "tuple"
        }
      ],
      "name": "setURI",
      "outputs": [],
      "stateMutability": "nonpayable",
      "type": "function"
    },
    {
      "inputs": [
        {
          "internalType": "bytes4",
          "name": "interfaceId",
          "type": "bytes4"
        }
      ],
      "name": "supportsInterface",
      "outputs": [
        {
          "internalType": "bool",
          "name": "",
          "type": "bool"
        }
      ],
      "stateMutability": "view",
      "type": "function"
    },
    {
      "inputs": [
        {
          "internalType": "uint256[]",
          "name": "_tokenIds",
          "type": "uint256[]"
        }
      ],
      "name": "swap",
      "outputs": [],
      "stateMutability": "nonpayable",
      "type": "function"
    },
    {
      "inputs": [],
      "name": "swappedTokenId",
      "outputs": [
        {
          "internalType": "uint256",
          "name": "",
          "type": "uint256"
        }
      ],
      "stateMutability": "view",
      "type": "function"
    },
    {
      "inputs": [],
      "name": "symbol",
      "outputs": [
        {
          "internalType": "string",
          "name": "",
          "type": "string"
        }
      ],
      "stateMutability": "view",
      "type": "function"
    },
    {
      "inputs": [
        {
          "internalType": "address",
          "name": "_admin",
          "type": "address"
        }
      ],
      "name": "toggleAdmin",
      "outputs": [],
      "stateMutability": "nonpayable",
      "type": "function"
    },
    {
      "inputs": [],
      "name": "tokenId",
      "outputs": [
        {
          "internalType": "uint256",
          "name": "",
          "type": "uint256"
        }
      ],
      "stateMutability": "view",
      "type": "function"
    },
    {
      "inputs": [
        {
          "internalType": "uint256",
          "name": "_tokenId",
          "type": "uint256"
        }
      ],
      "name": "tokenURI",
      "outputs": [
        {
          "internalType": "string",
          "name": "",
          "type": "string"
        }
      ],
      "stateMutability": "view",
      "type": "function"
    },
    {
      "inputs": [
        {
          "internalType": "uint256",
          "name": "",
          "type": "uint256"
        }
      ],
      "name": "tokenVisuals",
      "outputs": [
        {
          "internalType": "uint256",
          "name": "",
          "type": "uint256"
        }
      ],
      "stateMutability": "view",
      "type": "function"
    },
    {
      "inputs": [
        {
          "internalType": "address",
          "name": "from",
          "type": "address"
        },
        {
          "internalType": "address",
          "name": "to",
          "type": "address"
        },
        {
          "internalType": "uint256",
          "name": "tokenId",
          "type": "uint256"
        }
      ],
      "name": "transferFrom",
      "outputs": [],
      "stateMutability": "nonpayable",
      "type": "function"
    },
    {
      "inputs": [
        {
          "internalType": "uint256",
          "name": "",
          "type": "uint256"
        }
      ],
      "name": "visualNames",
      "outputs": [
        {
          "internalType": "string",
          "name": "",
          "type": "string"
        }
      ],
      "stateMutability": "view",
      "type": "function"
    },
    {
      "inputs": [
        {
          "internalType": "address",
          "name": "_recipient",
          "type": "address"
        }
      ],
      "name": "withdraw",
      "outputs": [],
      "stateMutability": "nonpayable",
      "type": "function"
    }
  ],
  "bytecode": "0x60c0604052612ee060805261271060a0523480156200001c575f80fd5b5060405162003bee38038062003bee8339810160408190526200003f91620006b1565b60405180604001604052806007815260200166129d5cdd105c9d60ca1b81525060405180604001604052806007815260200166129554d510549560ca1b815250815f90816200008f9190620007ed565b5060016200009e8282620007ed565b5050506040518060a0016040528060405180606001604052806024815260200162003bca6024913981526040805180820182526012815271111610113232b9b1b934b83a34b7b7111d1160711b6020828101919091528084019190915281518083018352600c81526b1116101134b6b0b3b2911d1160a11b8183015282840152815180830183526011815270222c202261747472696275746573223a5b60781b818301526060840152815180830190925260028252615d7d60f01b908201526080909101526200017390600e9060056200045c565b50335f818152601c602052604090208054600160ff1990911681179091556006805462010000600160b01b03191662010000909302929092179091556102ee6009556007819055608051620001c891620008b9565b600855835184906010908190620001e09082620007ed565b5060208201516001820190620001f79082620007ed565b50604082015160028201906200020e9082620007ed565b505083518491506013908190620002269082620007ed565b50602082015160018201906200023d9082620007ed565b5060408201516002820190620002549082620007ed565b5050825183915060169081906200026c9082620007ed565b5060208201516001820190620002839082620007ed565b50604082015160028201906200029a9082620007ed565b505081518291506019908190620002b29082620007ed565b5060208201516001820190620002c99082620007ed565b5060408201516002820190620002e09082620007ed565b505060408051808201909152600f81526e416d65726963616e20476f7468696360881b6020808301919091525f8052600c90527f13649b2456f1b42fef0f0040b3aaeabcd21a76a0f3f5defd4f583839455116e89150620003429082620007ed565b506040805180820190915260098152684d6f6e61204c69736160b81b60208083019190915260015f52600c90527fd421a5181c571bba3f01190c922c3b2a896fc1d84e86c9f17ac10e67ebef8b5c906200039d9082620007ed565b5060408051808201909152601081526f151a194814dd185c9c9e48139a59da1d60821b60208083019190915260025f52600c90527f5d6016397a73f5e079297ac5a36fef17b4d9c3831618e63ab105738020ddd72090620003ff9082620007ed565b5060405180606001604052806025815260200162003ba56025913960035f52600c6020527fc0da782485e77ae272268ae0a3ff44c1552ecb60b3743924de17a815e0a3cfd790620004519082620007ed565b5050505050620008df565b828054828255905f5260205f20908101928215620004a5579160200282015b82811115620004a55782518290620004949082620007ed565b50916020019190600101906200047b565b50620004b3929150620004b7565b5090565b80821115620004b3575f620004cd8282620004d7565b50600101620004b7565b508054620004e59062000763565b5f825580601f10620004f5575050565b601f0160209004905f5260205f209081019062000513919062000516565b50565b5b80821115620004b3575f815560010162000517565b634e487b7160e01b5f52604160045260245ffd5b604051601f8201601f191681016001600160401b03811182821017156200056b576200056b6200052c565b604052919050565b5f82601f83011262000583575f80fd5b81516001600160401b038111156200059f576200059f6200052c565b6020620005b5601f8301601f1916820162000540565b8281528582848701011115620005c9575f80fd5b5f5b83811015620005e8578581018301518282018401528201620005cb565b505f928101909101919091529392505050565b5f606082840312156200060c575f80fd5b604051606081016001600160401b0380821183831017156200063257620006326200052c565b8160405282935084519150808211156200064a575f80fd5b620006588683870162000573565b835260208501519150808211156200066e575f80fd5b6200067c8683870162000573565b6020840152604085015191508082111562000695575f80fd5b50620006a48582860162000573565b6040830152505092915050565b5f805f8060808587031215620006c5575f80fd5b84516001600160401b0380821115620006dc575f80fd5b620006ea88838901620005fb565b9550602087015191508082111562000700575f80fd5b6200070e88838901620005fb565b9450604087015191508082111562000724575f80fd5b6200073288838901620005fb565b9350606087015191508082111562000748575f80fd5b506200075787828801620005fb565b91505092959194509250565b600181811c908216806200077857607f821691505b6020821081036200079757634e487b7160e01b5f52602260045260245ffd5b50919050565b601f821115620007e857805f5260205f20601f840160051c81016020851015620007c45750805b601f840160051c820191505b81811015620007e5575f8155600101620007d0565b50505b505050565b81516001600160401b038111156200080957620008096200052c565b62000821816200081a845462000763565b846200079d565b602080601f83116001811462000857575f84156200083f5750858301515b5f19600386901b1c1916600185901b178555620008b1565b5f85815260208120601f198616915b82811015620008875788860151825594840194600190910190840162000866565b5085821015620008a557878501515f19600388901b60f8161c191681555b505060018460011b0185555b505050505050565b80820180821115620008d957634e487b7160e01b5f52601160045260245ffd5b92915050565b60805160a05161328f620009165f395f81816102a30152611c6601525f818161042e015281816108610152611110015261328f5ff3fe608060405234801561000f575f80fd5b50600436106101d1575f3560e01c80638c7ea24b116100fe578063c87b56dd1161009e578063e0945c351161006e578063e0945c3514610450578063e985e9c514610458578063ee3617bf14610493578063f1b4ae481461049c575f80fd5b8063c87b56dd146103d1578063cef6d368146103e4578063d3b8614114610416578063d5abeb0114610429575f80fd5b80639af58b30116100d95780639af58b3014610384578063a22cb465146103a3578063a475b5dd146103b6578063b88d4fde146103be575f80fd5b80638c7ea24b1461035657806395d89b411461036957806399cccd1214610371575f80fd5b80633410fe6e1161017457806351cff8d91161014457806351cff8d9146102fe5780636352211e1461031157806370a082311461032457806372980fcd14610337575f80fd5b80633410fe6e1461029e57806340c10f19146102c557806342842e0e146102d857806348bf630b146102eb575f80fd5b8063095ea7b3116101af578063095ea7b31461023d57806317d70f7c1461025257806323b872dd1461026957806324d7806c1461027c575f80fd5b806301ffc9a7146101d557806306fdde03146101fd578063081812fc14610212575b5f80fd5b6101e86101e336600461298e565b6104af565b60405190151581526020015b60405180910390f35b610205610502565b6040516101f491906129f6565b610225610220366004612a08565b610591565b6040516001600160a01b0390911681526020016101f4565b61025061024b366004612a33565b6105b6565b005b61025b60075481565b6040519081526020016101f4565b610250610277366004612a5d565b610708565b6101e861028a366004612a9b565b601c6020525f908152604090205460ff1681565b61025b7f000000000000000000000000000000000000000000000000000000000000000081565b6102506102d3366004612a33565b61077f565b6102506102e6366004612a5d565b610940565b6102506102f9366004612ab6565b61095a565b61025061030c366004612a9b565b610bea565b61022561031f366004612a08565b610c89565b61025b610332366004612a9b565b610ced565b61025b610345366004612a08565b600b6020525f908152604090205481565b610250610364366004612a33565b610d85565b610205610e32565b61020561037f366004612a08565b610e41565b61025b610392366004612a08565b600a6020525f908152604090205481565b6102506103b1366004612b25565b610ed8565b610250610ee3565b6102506103cc366004612c10565b610f5b565b6102056103df366004612a08565b610fd9565b6103f76103f2366004612a08565b611c33565b604080516001600160a01b0390931683526020830191909152016101f4565b610250610424366004612a9b565b611cb0565b61025b7f000000000000000000000000000000000000000000000000000000000000000081565b610250611d41565b6101e8610466366004612c8b565b6001600160a01b039182165f90815260056020908152604080832093909416825291909152205460ff1690565b61025b60085481565b6102506104aa366004612cd5565b611dbb565b5f6104b982611ec0565b806104ed57506001600160e01b031982167f2a55205a00000000000000000000000000000000000000000000000000000000145b806104fc57506104fc82611ec0565b92915050565b60605f805461051090612d9d565b80601f016020809104026020016040519081016040528092919081815260200182805461053c90612d9d565b80156105875780601f1061055e57610100808354040283529160200191610587565b820191905f5260205f20905b81548152906001019060200180831161056a57829003601f168201915b5050505050905090565b5f61059b82611f5a565b505f908152600460205260409020546001600160a01b031690565b5f6105c082610c89565b9050806001600160a01b0316836001600160a01b03160361064e5760405162461bcd60e51b815260206004820152602160248201527f4552433732313a20617070726f76616c20746f2063757272656e74206f776e6560448201527f720000000000000000000000000000000000000000000000000000000000000060648201526084015b60405180910390fd5b336001600160a01b038216148061068757506001600160a01b0381165f90815260056020908152604080832033845290915290205460ff165b6106f95760405162461bcd60e51b815260206004820152603d60248201527f4552433732313a20617070726f76652063616c6c6572206973206e6f7420746f60448201527f6b656e206f776e6572206f7220617070726f76656420666f7220616c6c0000006064820152608401610645565b6107038383611fc0565b505050565b610712338261203a565b6107745760405162461bcd60e51b815260206004820152602d60248201527f4552433732313a2063616c6c6572206973206e6f7420746f6b656e206f776e6560448201526c1c881bdc88185c1c1c9bdd9959609a1b6064820152608401610645565b6107038383836120b7565b335f908152601c602052604090205460ff166107e85760405162461bcd60e51b815260206004820152602260248201527f4f6e6c792061646d696e732063616e20706572666f6d2074686973206163746960448201526137b760f11b6064820152608401610645565b606481111561085f5760405162461bcd60e51b815260206004820152602260248201527f4d696e74206c696d6974656420746f2031303020746f6b656e73206174206f6e60448201527f63650000000000000000000000000000000000000000000000000000000000006064820152608401610645565b7f00000000000000000000000000000000000000000000000000000000000000008160016007546108909190612de9565b61089a9190612dfc565b11156108e85760405162461bcd60e51b815260206004820152601260248201527f4d617820737570706c79207265616368656400000000000000000000000000006044820152606401610645565b5f5b81811015610703575f61090060046007546122bb565b600780545f908152600a602052604090208290555490915061092390859061231e565b60078054905f61093283612e0f565b9091555050506001016108ea565b61070383838360405180602001604052805f815250610f5b565b600654610100900460ff166109b15760405162461bcd60e51b815260206004820152600c60248201527f537761707320636c6f73656400000000000000000000000000000000000000006044820152606401610645565b6109bc600482612e3b565b15610a095760405162461bcd60e51b815260206004820152601960248201527f5265717569726573203420746f6b656e7320746f2073776170000000000000006044820152606401610645565b6064811115610a805760405162461bcd60e51b815260206004820152602560248201527f4d61782031303020746f6b656e732063616e206265207377617070656420617460448201527f206f6e63650000000000000000000000000000000000000000000000000000006064820152608401610645565b5f5b818110156107035733610aac848484818110610aa057610aa0612e4e565b90506020020135610c89565b6001600160a01b031614610b025760405162461bcd60e51b815260206004820152600d60248201527f4e6f7420746865206f776e6572000000000000000000000000000000000000006044820152606401610645565b610b23838383818110610b1757610b17612e4e565b905060200201356124b3565b6004610b30826001612dfc565b610b3a9190612e3b565b5f03610be2575f610b4e60146008546122bb565b600880545f908152600a6020526040902082905554909150610b7190339061231e565b60088054905f610b8083612e0f565b90915550506008545f908152600d60205260409020805460ff19166001179055610bab600482612e3b565b600880545f908152600b602052604090209190915554610bcc90339061231e565b60088054905f610bdb83612e0f565b9190505550505b600101610a82565b335f908152601c602052604090205460ff16610c535760405162461bcd60e51b815260206004820152602260248201527f4f6e6c792061646d696e732063616e20706572666f6d2074686973206163746960448201526137b760f11b6064820152608401610645565b6040516001600160a01b038216904780156108fc02915f818181858888f19350505050158015610c85573d5f803e3d5ffd5b5050565b5f818152600260205260408120546001600160a01b0316806104fc5760405162461bcd60e51b815260206004820152601860248201527f4552433732313a20696e76616c696420746f6b656e20494400000000000000006044820152606401610645565b5f6001600160a01b038216610d6a5760405162461bcd60e51b815260206004820152602960248201527f4552433732313a2061646472657373207a65726f206973206e6f74206120766160448201527f6c6964206f776e657200000000000000000000000000000000000000000000006064820152608401610645565b506001600160a01b03165f9081526003602052604090205490565b335f908152601c602052604090205460ff16610dee5760405162461bcd60e51b815260206004820152602260248201527f4f6e6c792061646d696e732063616e20706572666f6d2074686973206163746960448201526137b760f11b6064820152608401610645565b600680546001600160a01b0390931662010000027fffffffffffffffffffff0000000000000000000000000000000000000000ffff90931692909217909155600955565b60606001805461051090612d9d565b600c6020525f908152604090208054610e5990612d9d565b80601f0160208091040260200160405190810160405280929190818152602001828054610e8590612d9d565b8015610ed05780601f10610ea757610100808354040283529160200191610ed0565b820191905f5260205f20905b815481529060010190602001808311610eb357829003601f168201915b505050505081565b610c85338383612552565b335f908152601c602052604090205460ff16610f4c5760405162461bcd60e51b815260206004820152602260248201527f4f6e6c792061646d696e732063616e20706572666f6d2074686973206163746960448201526137b760f11b6064820152608401610645565b6006805460ff19166001179055565b610f65338361203a565b610fc75760405162461bcd60e51b815260206004820152602d60248201527f4552433732313a2063616c6c6572206973206e6f7420746f6b656e206f776e6560448201526c1c881bdc88185c1c1c9bdd9959609a1b6064820152608401610645565b610fd38484848461261f565b50505050565b5f818152600260205260409020546060906001600160a01b03166110655760405162461bcd60e51b815260206004820152602f60248201527f4552433732314d657461646174613a2055524920717565727920666f72206e6f60448201527f6e6578697374656e7420746f6b656e00000000000000000000000000000000006064820152608401610645565b61108960405180606001604052806060815260200160608152602001606081525090565b6006545f9060ff16156110d8576040808301515f868152600a60205291909120546110b3906126a8565b6040516020016110c4929190612e62565b6040516020818303038152906040526110fd565b81604001516040516020016110ed9190612eb8565b6040516020818303038152906040525b60065490915060609060ff161561186b577f000000000000000000000000000000000000000000000000000000000000000085116113db5760136040518060600160405290815f8201805461115190612d9d565b80601f016020809104026020016040519081016040528092919081815260200182805461117d90612d9d565b80156111c85780601f1061119f576101008083540402835291602001916111c8565b820191905f5260205f20905b8154815290600101906020018083116111ab57829003601f168201915b505050505081526020016001820180546111e190612d9d565b80601f016020809104026020016040519081016040528092919081815260200182805461120d90612d9d565b80156112585780601f1061122f57610100808354040283529160200191611258565b820191905f5260205f20905b81548152906001019060200180831161123b57829003601f168201915b5050505050815260200160028201805461127190612d9d565b80601f016020809104026020016040519081016040528092919081815260200182805461129d90612d9d565b80156112e85780601f106112bf576101008083540402835291602001916112e8565b820191905f5260205f20905b8154815290600101906020018083116112cb57829003601f168201915b50505050508152505092508260400151611312600a5f8881526020019081526020015f20546126a8565b604051602001611323929190612e62565b60408051601f198184030181529181525f878152600a6020908152828220548252600c90522080549193509061135890612d9d565b80601f016020809104026020016040519081016040528092919081815260200182805461138490612d9d565b80156113cf5780601f106113a6576101008083540402835291602001916113cf565b820191905f5260205f20905b8154815290600101906020018083116113b257829003601f168201915b50505050509050611a80565b5f858152600d602052604090205460ff16156116255760196040518060600160405290815f8201805461140d90612d9d565b80601f016020809104026020016040519081016040528092919081815260200182805461143990612d9d565b80156114845780601f1061145b57610100808354040283529160200191611484565b820191905f5260205f20905b81548152906001019060200180831161146757829003601f168201915b5050505050815260200160018201805461149d90612d9d565b80601f01602080910402602001604051908101604052809291908181526020018280546114c990612d9d565b80156115145780601f106114eb57610100808354040283529160200191611514565b820191905f5260205f20905b8154815290600101906020018083116114f757829003601f168201915b5050505050815260200160028201805461152d90612d9d565b80601f016020809104026020016040519081016040528092919081815260200182805461155990612d9d565b80156115a45780601f1061157b576101008083540402835291602001916115a4565b820191905f5260205f20905b81548152906001019060200180831161158757829003601f168201915b505050505081525050925082604001516115ce600b5f8881526020019081526020015f20546126a8565b6040516020016115df929190612e62565b60408051601f19818403018152828201909152601082527f5768617420697320697420776f72746800000000000000000000000000000000602083015292509050611a80565b60166040518060600160405290815f8201805461164190612d9d565b80601f016020809104026020016040519081016040528092919081815260200182805461166d90612d9d565b80156116b85780601f1061168f576101008083540402835291602001916116b8565b820191905f5260205f20905b81548152906001019060200180831161169b57829003601f168201915b505050505081526020016001820180546116d190612d9d565b80601f01602080910402602001604051908101604052809291908181526020018280546116fd90612d9d565b80156117485780601f1061171f57610100808354040283529160200191611748565b820191905f5260205f20905b81548152906001019060200180831161172b57829003601f168201915b5050505050815260200160028201805461176190612d9d565b80601f016020809104026020016040519081016040528092919081815260200182805461178d90612d9d565b80156117d85780601f106117af576101008083540402835291602001916117d8565b820191905f5260205f20905b8154815290600101906020018083116117bb57829003601f168201915b50505050508152505092508260400151611802600a5f8881526020019081526020015f20546126a8565b604051602001611813929190612e62565b60408051601f198184030181529181525f878152600a602052205490925061184590611840906001612dfc565b6126a8565b6040516020016118559190612ed3565b6040516020818303038152906040529050611a80565b60106040518060600160405290815f8201805461188790612d9d565b80601f01602080910402602001604051908101604052809291908181526020018280546118b390612d9d565b80156118fe5780601f106118d5576101008083540402835291602001916118fe565b820191905f5260205f20905b8154815290600101906020018083116118e157829003601f168201915b5050505050815260200160018201805461191790612d9d565b80601f016020809104026020016040519081016040528092919081815260200182805461194390612d9d565b801561198e5780601f106119655761010080835404028352916020019161198e565b820191905f5260205f20905b81548152906001019060200180831161197157829003601f168201915b505050505081526020016002820180546119a790612d9d565b80601f01602080910402602001604051908101604052809291908181526020018280546119d390612d9d565b8015611a1e5780601f106119f557610100808354040283529160200191611a1e565b820191905f5260205f20905b815481529060010190602001808311611a0157829003601f168201915b50505050508152505092508260400151604051602001611a3e9190612eb8565b60408051601f19818403018152828201909152600882527f4a7573744172742a0000000000000000000000000000000000000000000000006020830152925090505b82515f90611a8d876126a8565b604051602001611a9e929190612f17565b60405160208183030381529060405290505f82604051602001611ac19190612f45565b60405160208183030381529060405290505f600e5f81548110611ae657611ae6612e4e565b905f5260205f200183604051602001611b00929190613045565b604051602081830303815290604052600e600181548110611b2357611b23612e4e565b905f5260205f20018760200151604051602001611b41929190613045565b604051602081830303815290604052600e600281548110611b6457611b64612e4e565b905f5260205f200187604051602001611b7e929190613045565b604051602081830303815290604052600e600381548110611ba157611ba1612e4e565b905f5260205f200185604051602001611bbb929190613045565b604051602081830303815290604052600e600481548110611bde57611bde612e4e565b905f5260205f2001604051602001611bf69190613060565b60408051601f1981840301815290829052611c17959493929160200161306b565b60408051601f1981840301815291905298975050505050505050565b6006545f9081906201000090046001600160a01b031615611ca657600660029054906101000a90046001600160a01b03167f000000000000000000000000000000000000000000000000000000000000000060095485611c9391906130d5565b611c9d91906130ec565b91509150915091565b505f928392509050565b335f908152601c602052604090205460ff16611d195760405162461bcd60e51b815260206004820152602260248201527f4f6e6c792061646d696e732063616e20706572666f6d2074686973206163746960448201526137b760f11b6064820152608401610645565b6001600160a01b03165f908152601c60205260409020805460ff19811660ff90911615179055565b335f908152601c602052604090205460ff16611daa5760405162461bcd60e51b815260206004820152602260248201527f4f6e6c792061646d696e732063616e20706572666f6d2074686973206163746960448201526137b760f11b6064820152608401610645565b6006805461ff001916610100179055565b335f908152601c602052604090205460ff16611e245760405162461bcd60e51b815260206004820152602260248201527f4f6e6c792061646d696e732063616e20706572666f6d2074686973206163746960448201526137b760f11b6064820152608401610645565b60ff821615611ead578160ff16600114611e9a578160ff16600214611e8757805181906019908190611e569082613143565b5060208201516001820190611e6b9082613143565b5060408201516002820190611e809082613143565b5050505050565b805181906016908190611e569082613143565b805181906013908190611e569082613143565b805181906010908190611e569082613143565b5f6001600160e01b031982167f80ac58cd000000000000000000000000000000000000000000000000000000001480611f2257506001600160e01b031982167f5b5e139f00000000000000000000000000000000000000000000000000000000145b806104fc57507f01ffc9a7000000000000000000000000000000000000000000000000000000006001600160e01b03198316146104fc565b5f818152600260205260409020546001600160a01b0316611fbd5760405162461bcd60e51b815260206004820152601860248201527f4552433732313a20696e76616c696420746f6b656e20494400000000000000006044820152606401610645565b50565b5f818152600460205260409020805473ffffffffffffffffffffffffffffffffffffffff19166001600160a01b038416908117909155819061200182610c89565b6001600160a01b03167f8c5be1e5ebec7d5bd14f71427d1e84f3dd0314c0f7b2291e5b200ac8c7c3b92560405160405180910390a45050565b5f8061204583610c89565b9050806001600160a01b0316846001600160a01b0316148061208b57506001600160a01b038082165f9081526005602090815260408083209388168352929052205460ff165b806120af5750836001600160a01b03166120a484610591565b6001600160a01b0316145b949350505050565b826001600160a01b03166120ca82610c89565b6001600160a01b03161461212e5760405162461bcd60e51b815260206004820152602560248201527f4552433732313a207472616e736665722066726f6d20696e636f72726563742060448201526437bbb732b960d91b6064820152608401610645565b6001600160a01b0382166121a95760405162461bcd60e51b8152602060048201526024808201527f4552433732313a207472616e7366657220746f20746865207a65726f2061646460448201527f72657373000000000000000000000000000000000000000000000000000000006064820152608401610645565b826001600160a01b03166121bc82610c89565b6001600160a01b0316146122205760405162461bcd60e51b815260206004820152602560248201527f4552433732313a207472616e736665722066726f6d20696e636f72726563742060448201526437bbb732b960d91b6064820152608401610645565b5f818152600460209081526040808320805473ffffffffffffffffffffffffffffffffffffffff199081169091556001600160a01b038781168086526003855283862080545f1901905590871680865283862080546001019055868652600290945282852080549092168417909155905184937fddf252ad1be2c89b69c2b068fc378daa952ba7f163c4a11628f55a4df523b3ef91a4505050565b5f824283336040516020016122f593929190928352602083019190915260601b6bffffffffffffffffffffffff1916604082015260540190565b604051602081830303815290604052805190602001205f1c6123179190612e3b565b9392505050565b6001600160a01b0382166123745760405162461bcd60e51b815260206004820181905260248201527f4552433732313a206d696e7420746f20746865207a65726f20616464726573736044820152606401610645565b5f818152600260205260409020546001600160a01b0316156123d85760405162461bcd60e51b815260206004820152601c60248201527f4552433732313a20746f6b656e20616c7265616479206d696e746564000000006044820152606401610645565b5f818152600260205260409020546001600160a01b03161561243c5760405162461bcd60e51b815260206004820152601c60248201527f4552433732313a20746f6b656e20616c7265616479206d696e746564000000006044820152606401610645565b6001600160a01b0382165f818152600360209081526040808320805460010190558483526002909152808220805473ffffffffffffffffffffffffffffffffffffffff19168417905551839291907fddf252ad1be2c89b69c2b068fc378daa952ba7f163c4a11628f55a4df523b3ef908290a45050565b5f6124bd82610c89565b90506124c882610c89565b5f838152600460209081526040808320805473ffffffffffffffffffffffffffffffffffffffff199081169091556001600160a01b0385168085526003845282852080545f190190558785526002909352818420805490911690555192935084927fddf252ad1be2c89b69c2b068fc378daa952ba7f163c4a11628f55a4df523b3ef908390a45050565b816001600160a01b0316836001600160a01b0316036125b35760405162461bcd60e51b815260206004820152601960248201527f4552433732313a20617070726f766520746f2063616c6c6572000000000000006044820152606401610645565b6001600160a01b038381165f81815260056020908152604080832094871680845294825291829020805460ff191686151590811790915591519182527f17307eab39ab6107e8899845ad3d59bd9653f200f220920489ca2b5937696c31910160405180910390a3505050565b61262a8484846120b7565b61263684848484612745565b610fd35760405162461bcd60e51b815260206004820152603260248201527f4552433732313a207472616e7366657220746f206e6f6e20455243373231526560448201527f63656976657220696d706c656d656e74657200000000000000000000000000006064820152608401610645565b60605f6126b483612898565b60010190505f8167ffffffffffffffff8111156126d3576126d3612b60565b6040519080825280601f01601f1916602001820160405280156126fd576020820181803683370190505b5090508181016020015b5f19017f3031323334353637383961626364656600000000000000000000000000000000600a86061a8153600a850494508461270757509392505050565b5f6001600160a01b0384163b1561288d57604051630a85bd0160e11b81526001600160a01b0385169063150b7a0290612788903390899088908890600401613203565b6020604051808303815f875af19250505080156127c2575060408051601f3d908101601f191682019092526127bf9181019061323e565b60015b612873573d8080156127ef576040519150601f19603f3d011682016040523d82523d5f602084013e6127f4565b606091505b5080515f0361286b5760405162461bcd60e51b815260206004820152603260248201527f4552433732313a207472616e7366657220746f206e6f6e20455243373231526560448201527f63656976657220696d706c656d656e74657200000000000000000000000000006064820152608401610645565b805181602001fd5b6001600160e01b031916630a85bd0160e11b1490506120af565b506001949350505050565b5f807a184f03e93ff9f4daa797ed6e38ed64bf6a1f01000000000000000083106128e0577a184f03e93ff9f4daa797ed6e38ed64bf6a1f010000000000000000830492506040015b6d04ee2d6d415b85acef8100000000831061290c576d04ee2d6d415b85acef8100000000830492506020015b662386f26fc10000831061292a57662386f26fc10000830492506010015b6305f5e1008310612942576305f5e100830492506008015b612710831061295657612710830492506004015b60648310612968576064830492506002015b600a83106104fc5760010192915050565b6001600160e01b031981168114611fbd575f80fd5b5f6020828403121561299e575f80fd5b813561231781612979565b5f5b838110156129c35781810151838201526020016129ab565b50505f910152565b5f81518084526129e28160208601602086016129a9565b601f01601f19169290920160200192915050565b602081525f61231760208301846129cb565b5f60208284031215612a18575f80fd5b5035919050565b6001600160a01b0381168114611fbd575f80fd5b5f8060408385031215612a44575f80fd5b8235612a4f81612a1f565b946020939093013593505050565b5f805f60608486031215612a6f575f80fd5b8335612a7a81612a1f565b92506020840135612a8a81612a1f565b929592945050506040919091013590565b5f60208284031215612aab575f80fd5b813561231781612a1f565b5f8060208385031215612ac7575f80fd5b823567ffffffffffffffff80821115612ade575f80fd5b818501915085601f830112612af1575f80fd5b813581811115612aff575f80fd5b8660208260051b8501011115612b13575f80fd5b60209290920196919550909350505050565b5f8060408385031215612b36575f80fd5b8235612b4181612a1f565b915060208301358015158114612b55575f80fd5b809150509250929050565b634e487b7160e01b5f52604160045260245ffd5b6040516060810167ffffffffffffffff81118282101715612b9757612b97612b60565b60405290565b5f67ffffffffffffffff80841115612bb757612bb7612b60565b604051601f8501601f19908116603f01168101908282118183101715612bdf57612bdf612b60565b81604052809350858152868686011115612bf7575f80fd5b858560208301375f602087830101525050509392505050565b5f805f8060808587031215612c23575f80fd5b8435612c2e81612a1f565b93506020850135612c3e81612a1f565b925060408501359150606085013567ffffffffffffffff811115612c60575f80fd5b8501601f81018713612c70575f80fd5b612c7f87823560208401612b9d565b91505092959194509250565b5f8060408385031215612c9c575f80fd5b8235612ca781612a1f565b91506020830135612b5581612a1f565b5f82601f830112612cc6575f80fd5b61231783833560208501612b9d565b5f8060408385031215612ce6575f80fd5b823560ff81168114612cf6575f80fd5b9150602083013567ffffffffffffffff80821115612d12575f80fd5b9084019060608287031215612d25575f80fd5b612d2d612b74565b823582811115612d3b575f80fd5b612d4788828601612cb7565b825250602083013582811115612d5b575f80fd5b612d6788828601612cb7565b602083015250604083013582811115612d7e575f80fd5b612d8a88828601612cb7565b6040830152508093505050509250929050565b600181811c90821680612db157607f821691505b602082108103612dcf57634e487b7160e01b5f52602260045260245ffd5b50919050565b634e487b7160e01b5f52601160045260245ffd5b818103818111156104fc576104fc612dd5565b808201808211156104fc576104fc612dd5565b5f60018201612e2057612e20612dd5565b5060010190565b634e487b7160e01b5f52601260045260245ffd5b5f82612e4957612e49612e27565b500690565b634e487b7160e01b5f52603260045260245ffd5b5f8351612e738184602088016129a9565b835190830190612e878183602088016129a9565b7f2e706e67000000000000000000000000000000000000000000000000000000009101908152600401949350505050565b5f8251612ec98184602087016129a9565b9190910192915050565b7f556e7469746c656420230000000000000000000000000000000000000000000081525f8251612f0a81600a8501602087016129a9565b91909101600a0192915050565b5f8351612f288184602088016129a9565b835190830190612f3c8183602088016129a9565b01949350505050565b7f7b2274726169745f74797065223a2022417274776f726b222c202276616c756581527f223a20220000000000000000000000000000000000000000000000000000000060208201525f8251612fa28160248501602087016129a9565b7f227d0000000000000000000000000000000000000000000000000000000000006024939091019283015250602601919050565b5f8154612fe281612d9d565b60018281168015612ffa576001811461300f5761303b565b60ff198416875282151583028701945061303b565b855f526020805f205f5b858110156130325781548a820152908401908201613019565b50505082870194505b5050505092915050565b5f6130508285612fd6565b8351612f3c8183602088016129a9565b5f6123178284612fd6565b5f865161307c818460208b016129a9565b865190830190613090818360208b016129a9565b86519101906130a3818360208a016129a9565b85519101906130b68183602089016129a9565b84519101906130c98183602088016129a9565b01979650505050505050565b80820281158282048414176104fc576104fc612dd5565b5f826130fa576130fa612e27565b500490565b601f82111561070357805f5260205f20601f840160051c810160208510156131245750805b601f840160051c820191505b81811015611e80575f8155600101613130565b815167ffffffffffffffff81111561315d5761315d612b60565b6131718161316b8454612d9d565b846130ff565b602080601f8311600181146131a4575f841561318d5750858301515b5f19600386901b1c1916600185901b1785556131fb565b5f85815260208120601f198616915b828110156131d2578886015182559484019460019091019084016131b3565b50858210156131ef57878501515f19600388901b60f8161c191681555b505060018460011b0185555b505050505050565b5f6001600160a01b0380871683528086166020840152508360408301526080606083015261323460808301846129cb565b9695505050505050565b5f6020828403121561324e575f80fd5b81516123178161297956fea2646970667358221220ff887855a332c38008ac60ab01bbde82718efb8060846cb6f7c3cdb53f2b6bca64736f6c63430008180033436f6d706f736974696f6e2077697468205265642c20426c756520616e642059656c6c6f77646174613a6170706c69636174696f6e2f6a736f6e3b757466382c7b226e616d65223a22",
  "linkReferences": {},
  "deployedLinkReferences": {}
}