{
  "_format": "hh-sol-artifact-1",
  "contractName": "JustArtMint",
  "sourceName": "contracts/JustArtMint.sol",
  "abi": [
    {
      "inputs": [
        {
          "internalType": "address",
          "name": "_justArtAddress",
          "type": "address"
        },
        {
          "internalType": "address",
          "name": "_recipient1",
          "type": "address"
        },
        {
          "internalType": "address",
          "name": "_recipient2",
          "type": "address"
        },
        {
          "internalType": "uint256",
          "name": "_share1",
          "type": "uint256"
        },
        {
          "internalType": "uint256",
          "name": "_share2",
          "type": "uint256"
        }
      ],
      "stateMutability": "nonpayable",
      "type": "constructor"
    },
    {
      "inputs": [
        {
          "internalType": "address",
          "name": "",
          "type": "address"
        }
      ],
      "name": "isAdmin",
      "outputs": [
        {
          "internalType": "bool",
          "name": "",
          "type": "bool"
        }
      ],
      "stateMutability": "view",
      "type": "function"
    },
    {
      "inputs": [],
      "name": "justArtAddress",
      "outputs": [
        {
          "internalType": "address",
          "name": "",
          "type": "address"
        }
      ],
      "stateMutability": "view",
      "type": "function"
    },
    {
      "inputs": [],
      "name": "limitPerWallet",
      "outputs": [
        {
          "internalType": "uint256",
          "name": "",
          "type": "uint256"
        }
      ],
      "stateMutability": "view",
      "type": "function"
    },
    {
      "inputs": [
        {
          "internalType": "address",
          "name": "",
          "type": "address"
        }
      ],
      "name": "minted",
      "outputs": [
        {
          "internalType": "bool",
          "name": "",
          "type": "bool"
        }
      ],
      "stateMutability": "view",
      "type": "function"
    },
    {
      "inputs": [],
      "name": "price",
      "outputs": [
        {
          "internalType": "uint256",
          "name": "",
          "type": "uint256"
        }
      ],
      "stateMutability": "view",
      "type": "function"
    },
    {
      "inputs": [
        {
          "internalType": "uint256",
          "name": "_quantity",
          "type": "uint256"
        },
        {
          "internalType": "uint8",
          "name": "v",
          "type": "uint8"
        },
        {
          "internalType": "bytes32",
          "name": "r",
          "type": "bytes32"
        },
        {
          "internalType": "bytes32",
          "name": "s",
          "type": "bytes32"
        }
      ],
      "name": "privateMint",
      "outputs": [],
      "stateMutability": "payable",
      "type": "function"
    },
    {
      "inputs": [],
      "name": "privateMintOpened",
      "outputs": [
        {
          "internalType": "bool",
          "name": "",
          "type": "bool"
        }
      ],
      "stateMutability": "view",
      "type": "function"
    },
    {
      "inputs": [
        {
          "internalType": "uint256",
          "name": "_quantity",
          "type": "uint256"
        }
      ],
      "name": "publicMint",
      "outputs": [],
      "stateMutability": "payable",
      "type": "function"
    },
    {
      "inputs": [],
      "name": "publicMintOpened",
      "outputs": [
        {
          "internalType": "bool",
          "name": "",
          "type": "bool"
        }
      ],
      "stateMutability": "view",
      "type": "function"
    },
    {
      "inputs": [
        {
          "internalType": "address",
          "name": "",
          "type": "address"
        }
      ],
      "name": "quantityMinted",
      "outputs": [
        {
          "internalType": "uint256",
          "name": "",
          "type": "uint256"
        }
      ],
      "stateMutability": "view",
      "type": "function"
    },
    {
      "inputs": [
        {
          "internalType": "address",
          "name": "_justArtAddress",
          "type": "address"
        }
      ],
      "name": "setJustArtAddress",
      "outputs": [],
      "stateMutability": "nonpayable",
      "type": "function"
    },
    {
      "inputs": [
        {
          "internalType": "address",
          "name": "_recipient1",
          "type": "address"
        },
        {
          "internalType": "address",
          "name": "_recipient2",
          "type": "address"
        }
      ],
      "name": "setRecipients",
      "outputs": [],
      "stateMutability": "nonpayable",
      "type": "function"
    },
    {
      "inputs": [
        {
          "internalType": "uint256",
          "name": "_share1",
          "type": "uint256"
        },
        {
          "internalType": "uint256",
          "name": "_share2",
          "type": "uint256"
        }
      ],
      "name": "setShares",
      "outputs": [],
      "stateMutability": "nonpayable",
      "type": "function"
    },
    {
      "inputs": [
        {
          "internalType": "address",
          "name": "_signer",
          "type": "address"
        }
      ],
      "name": "setSigner",
      "outputs": [],
      "stateMutability": "nonpayable",
      "type": "function"
    },
    {
      "inputs": [
        {
          "internalType": "address",
          "name": "_admin",
          "type": "address"
        }
      ],
      "name": "toggleAdmin",
      "outputs": [],
      "stateMutability": "nonpayable",
      "type": "function"
    },
    {
      "inputs": [],
      "name": "togglePrivateMintStatus",
      "outputs": [],
      "stateMutability": "nonpayable",
      "type": "function"
    },
    {
      "inputs": [],
      "name": "togglePublicMintStatus",
      "outputs": [],
      "stateMutability": "nonpayable",
      "type": "function"
    }
  ],
  "bytecode": "0x60c06040526611c37937e080005f55600a60805261271060a052348015610024575f80fd5b50604051610dec380380610dec833981016040819052610043916100d1565b600580546001600160a01b03199081166001600160a01b039687161790915560068054821694861694909417909355600480543390851681179091556003805490941695909416949094179091555f91825260076020526040909120805460ff1916600190811790915555600255610123565b80516001600160a01b03811681146100cc575f80fd5b919050565b5f805f805f60a086880312156100e5575f80fd5b6100ee866100b6565b94506100fc602087016100b6565b935061010a604087016100b6565b6060870151608090970151959894975095949392505050565b60805160a051610c9a6101525f395f818161041a015261099c01525f81816102eb01526104c70152610c9a5ff3fe608060405260043610610109575f3560e01c80636c19e783116100a1578063a035b1fe11610071578063d027ba1611610057578063d027ba161461030d578063d3b861411461032d578063e5da932a1461034c575f80fd5b8063a035b1fe146102c6578063a620ce5a146102da575f80fd5b80636c19e7831461023c5780638179b3b41461025b57806381e9a9101461029257806397f5ec67146102b2575f80fd5b80632aca3e7d116100dc5780632aca3e7d146101d85780632c0f1043146101f75780632db115441461020a57806358d49cc01461021d575f80fd5b806316de13351461010d57806316df99d11461012e5780631e7269c51461016c57806324d7806c146101aa575b5f80fd5b348015610118575f80fd5b5061012c610127366004610b3a565b610360565b005b348015610139575f80fd5b50610159610148366004610b6b565b60096020525f908152604090205481565b6040519081526020015b60405180910390f35b348015610177575f80fd5b5061019a610186366004610b6b565b60086020525f908152604090205460ff1681565b6040519015158152602001610163565b3480156101b5575f80fd5b5061019a6101c4366004610b6b565b60076020525f908152604090205460ff1681565b3480156101e3575f80fd5b5061012c6101f2366004610b8b565b6103b5565b61012c610205366004610bab565b61049b565b61012c610218366004610bea565b6106c4565b348015610228575f80fd5b5061012c610237366004610b6b565b610729565b348015610247575f80fd5b5061012c610256366004610b6b565b610772565b348015610266575f80fd5b5060035461027a906001600160a01b031681565b6040516001600160a01b039091168152602001610163565b34801561029d575f80fd5b5060065461019a90600160a01b900460ff1681565b3480156102bd575f80fd5b5061012c6107bb565b3480156102d1575f80fd5b506101595f5481565b3480156102e5575f80fd5b506101597f000000000000000000000000000000000000000000000000000000000000000081565b348015610318575f80fd5b5060065461019a90600160a81b900460ff1681565b348015610338575f80fd5b5061012c610347366004610b6b565b610811565b348015610357575f80fd5b5061012c610853565b335f9081526007602052604090205460ff1661037a575f80fd5b600580546001600160a01b0393841673ffffffffffffffffffffffffffffffffffffffff199182161790915560068054929093169116179055565b335f9081526007602052604090205460ff166104185760405162461bcd60e51b815260206004820152600c60248201527f556e617574686f72697a6564000000000000000000000000000000000000000060448201526064015b60405180910390fd5b7f00000000000000000000000000000000000000000000000000000000000000006104438284610c15565b146104905760405162461bcd60e51b815260206004820152601460248201527f496e76616c6964207368617265732073706c6974000000000000000000000000604482015260640161040f565b600191909155600255565b600354335f818152600960205260409020548692869286928692600192916001600160a01b03909116907f0000000000000000000000000000000000000000000000000000000000000000906104f19089610c15565b6040516bffffffffffffffffffffffff19606095861b811660208301529390941b9092166034840152101560f81b604882015260490160408051601f198184030181529082905280516020918201207f19457468657265756d205369676e6564204d6573736167653a0a33320000000091830191909152603c820152605c0160408051601f1981840301815282825280516020918201205f84529083018083525260ff861690820152606081018490526080810183905260a0016020604051602081039080840390855afa1580156105cb573d5f803e3d5ffd5b5050604051601f1901516004546001600160a01b0390811691161490506106345760405162461bcd60e51b815260206004820152601160248201527f496e76616c6964207369676e6174757265000000000000000000000000000000604482015260640161040f565b600654600160a01b900460ff1661068d5760405162461bcd60e51b815260206004820152601360248201527f50726976617465204d696e7420636c6f73656400000000000000000000000000604482015260640161040f565b335f90815260096020526040812080548a92906106ab908490610c15565b909155506106ba9050886108a9565b5050505050505050565b600654600160a81b900460ff1661071d5760405162461bcd60e51b815260206004820152601260248201527f5075626c6963204d696e7420636c6f7365640000000000000000000000000000604482015260640161040f565b610726816108a9565b50565b335f9081526007602052604090205460ff16610743575f80fd5b6003805473ffffffffffffffffffffffffffffffffffffffff19166001600160a01b0392909216919091179055565b335f9081526007602052604090205460ff1661078c575f80fd5b6004805473ffffffffffffffffffffffffffffffffffffffff19166001600160a01b0392909216919091179055565b335f9081526007602052604090205460ff166107d5575f80fd5b600680547fffffffffffffffffffff00ffffffffffffffffffffffffffffffffffffffffff8116600160a81b9182900460ff1615909102179055565b335f9081526007602052604090205460ff1661082b575f80fd5b6001600160a01b03165f908152600760205260409020805460ff19811660ff90911615179055565b335f9081526007602052604090205460ff1661086d575f80fd5b600680547fffffffffffffffffffffff00ffffffffffffffffffffffffffffffffffffffff8116600160a01b9182900460ff1615909102179055565b5f815f546108b79190610c2e565b9050803410156109095760405162461bcd60e51b815260206004820152601060248201527f4e6f7420656e6f7567682066756e647300000000000000000000000000000000604482015260640161040f565b335f9081526008602052604090205460ff16156109685760405162461bcd60e51b815260206004820152601760248201527f4f6e6c79206f6e65204e4654207065722077616c6c6574000000000000000000604482015260640161040f565b335f908152600860205260408120805460ff1916600190811790915560055490546001600160a01b0391909116906108fc907f0000000000000000000000000000000000000000000000000000000000000000906109c69086610c2e565b6109d09190610c45565b6040518115909202915f818181858888f19350505050905080610a355760405162461bcd60e51b815260206004820152601160248201527f5472616e736665722031206661696c6564000000000000000000000000000000604482015260640161040f565b6006546040515f916001600160a01b0316904780156108fc029184818181858888f19350505050905080610aab5760405162461bcd60e51b815260206004820152601160248201527f5472616e736665722032206661696c6564000000000000000000000000000000604482015260640161040f565b6003546040517f40c10f19000000000000000000000000000000000000000000000000000000008152336004820152602481018690526001600160a01b03909116906340c10f19906044015f604051808303815f87803b158015610b0d575f80fd5b505af11580156106ba573d5f803e3d5ffd5b80356001600160a01b0381168114610b35575f80fd5b919050565b5f8060408385031215610b4b575f80fd5b610b5483610b1f565b9150610b6260208401610b1f565b90509250929050565b5f60208284031215610b7b575f80fd5b610b8482610b1f565b9392505050565b5f8060408385031215610b9c575f80fd5b50508035926020909101359150565b5f805f8060808587031215610bbe575f80fd5b84359350602085013560ff81168114610bd5575f80fd5b93969395505050506040820135916060013590565b5f60208284031215610bfa575f80fd5b5035919050565b634e487b7160e01b5f52601160045260245ffd5b80820180821115610c2857610c28610c01565b92915050565b8082028115828204841417610c2857610c28610c01565b5f82610c5f57634e487b7160e01b5f52601260045260245ffd5b50049056fea26469706673582212208f3fc730c9b721b1866e3ed1c153dfcfa50ad014ff463f1ba49f003a87c0c73e64736f6c63430008180033",
  "linkReferences": {},
  "deployedLinkReferences": {}
}