{
  "_format": "hh-sol-artifact-1",
  "contractName": "JustArtMint",
  "sourceName": "contracts/JustArtMint.sol",
  "abi": [
    {
      "inputs": [
        {
          "internalType": "address",
          "name": "_justArtAddress",
          "type": "address"
        },
        {
          "internalType": "address",
          "name": "_recipient1",
          "type": "address"
        },
        {
          "internalType": "address",
          "name": "_recipient2",
          "type": "address"
        },
        {
          "internalType": "uint256",
          "name": "_share1",
          "type": "uint256"
        },
        {
          "internalType": "uint256",
          "name": "_share2",
          "type": "uint256"
        }
      ],
      "stateMutability": "nonpayable",
      "type": "constructor"
    },
    {
      "inputs": [
        {
          "internalType": "address",
          "name": "",
          "type": "address"
        }
      ],
      "name": "isAdmin",
      "outputs": [
        {
          "internalType": "bool",
          "name": "",
          "type": "bool"
        }
      ],
      "stateMutability": "view",
      "type": "function"
    },
    {
      "inputs": [],
      "name": "justArtAddress",
      "outputs": [
        {
          "internalType": "address",
          "name": "",
          "type": "address"
        }
      ],
      "stateMutability": "view",
      "type": "function"
    },
    {
      "inputs": [],
      "name": "limitPerWallet",
      "outputs": [
        {
          "internalType": "uint256",
          "name": "",
          "type": "uint256"
        }
      ],
      "stateMutability": "view",
      "type": "function"
    },
    {
      "inputs": [],
      "name": "price",
      "outputs": [
        {
          "internalType": "uint256",
          "name": "",
          "type": "uint256"
        }
      ],
      "stateMutability": "view",
      "type": "function"
    },
    {
      "inputs": [
        {
          "internalType": "uint256",
          "name": "_quantity",
          "type": "uint256"
        },
        {
          "internalType": "uint8",
          "name": "v",
          "type": "uint8"
        },
        {
          "internalType": "bytes32",
          "name": "r",
          "type": "bytes32"
        },
        {
          "internalType": "bytes32",
          "name": "s",
          "type": "bytes32"
        }
      ],
      "name": "privateMint",
      "outputs": [],
      "stateMutability": "payable",
      "type": "function"
    },
    {
      "inputs": [],
      "name": "privateMintOpened",
      "outputs": [
        {
          "internalType": "bool",
          "name": "",
          "type": "bool"
        }
      ],
      "stateMutability": "view",
      "type": "function"
    },
    {
      "inputs": [
        {
          "internalType": "uint256",
          "name": "_quantity",
          "type": "uint256"
        }
      ],
      "name": "publicMint",
      "outputs": [],
      "stateMutability": "payable",
      "type": "function"
    },
    {
      "inputs": [],
      "name": "publicMintOpened",
      "outputs": [
        {
          "internalType": "bool",
          "name": "",
          "type": "bool"
        }
      ],
      "stateMutability": "view",
      "type": "function"
    },
    {
      "inputs": [
        {
          "internalType": "address",
          "name": "",
          "type": "address"
        }
      ],
      "name": "quantityMinted",
      "outputs": [
        {
          "internalType": "uint256",
          "name": "",
          "type": "uint256"
        }
      ],
      "stateMutability": "view",
      "type": "function"
    },
    {
      "inputs": [
        {
          "internalType": "address",
          "name": "_justArtAddress",
          "type": "address"
        }
      ],
      "name": "setJustArtAddress",
      "outputs": [],
      "stateMutability": "nonpayable",
      "type": "function"
    },
    {
      "inputs": [
        {
          "internalType": "address",
          "name": "_recipient1",
          "type": "address"
        },
        {
          "internalType": "address",
          "name": "_recipient2",
          "type": "address"
        }
      ],
      "name": "setRecipients",
      "outputs": [],
      "stateMutability": "nonpayable",
      "type": "function"
    },
    {
      "inputs": [
        {
          "internalType": "uint256",
          "name": "_share1",
          "type": "uint256"
        },
        {
          "internalType": "uint256",
          "name": "_share2",
          "type": "uint256"
        }
      ],
      "name": "setShares",
      "outputs": [],
      "stateMutability": "nonpayable",
      "type": "function"
    },
    {
      "inputs": [
        {
          "internalType": "address",
          "name": "_signer",
          "type": "address"
        }
      ],
      "name": "setSigner",
      "outputs": [],
      "stateMutability": "nonpayable",
      "type": "function"
    },
    {
      "inputs": [
        {
          "internalType": "address",
          "name": "_admin",
          "type": "address"
        }
      ],
      "name": "toggleAdmin",
      "outputs": [],
      "stateMutability": "nonpayable",
      "type": "function"
    },
    {
      "inputs": [],
      "name": "togglePrivateMintStatus",
      "outputs": [],
      "stateMutability": "nonpayable",
      "type": "function"
    },
    {
      "inputs": [],
      "name": "togglePublicMintStatus",
      "outputs": [],
      "stateMutability": "nonpayable",
      "type": "function"
    }
  ],
  "bytecode": "0x60c06040526611c37937e080005f55600c60805261271060a052348015610024575f80fd5b50604051610d29380380610d29833981016040819052610043916100d1565b600580546001600160a01b03199081166001600160a01b039687161790915560068054821694861694909417909355600480543390851681179091556003805490941695909416949094179091555f91825260076020526040909120805460ff1916600190811790915555600255610123565b80516001600160a01b03811681146100cc575f80fd5b919050565b5f805f805f60a086880312156100e5575f80fd5b6100ee866100b6565b94506100fc602087016100b6565b935061010a604087016100b6565b6060870151608090970151959894975095949392505050565b60805160a051610bd76101525f395f81816103d201526108d901525f81816102a3015261047f0152610bd75ff3fe6080604052600436106100ef575f3560e01c80638179b3b411610087578063a620ce5a11610057578063a620ce5a14610292578063d027ba16146102c5578063d3b86141146102e5578063e5da932a14610304575f80fd5b80638179b3b41461021357806381e9a9101461024a57806397f5ec671461026a578063a035b1fe1461027e575f80fd5b80632c0f1043116100c25780632c0f1043146101af5780632db11544146101c257806358d49cc0146101d55780636c19e783146101f4575f80fd5b806316de1335146100f357806316df99d11461011457806324d7806c146101525780632aca3e7d14610190575b5f80fd5b3480156100fe575f80fd5b5061011261010d366004610a77565b610318565b005b34801561011f575f80fd5b5061013f61012e366004610aa8565b60086020525f908152604090205481565b6040519081526020015b60405180910390f35b34801561015d575f80fd5b5061018061016c366004610aa8565b60076020525f908152604090205460ff1681565b6040519015158152602001610149565b34801561019b575f80fd5b506101126101aa366004610ac8565b61036d565b6101126101bd366004610ae8565b610453565b6101126101d0366004610b27565b61067c565b3480156101e0575f80fd5b506101126101ef366004610aa8565b6106e1565b3480156101ff575f80fd5b5061011261020e366004610aa8565b61072a565b34801561021e575f80fd5b50600354610232906001600160a01b031681565b6040516001600160a01b039091168152602001610149565b348015610255575f80fd5b5060065461018090600160a01b900460ff1681565b348015610275575f80fd5b50610112610773565b348015610289575f80fd5b5061013f5f5481565b34801561029d575f80fd5b5061013f7f000000000000000000000000000000000000000000000000000000000000000081565b3480156102d0575f80fd5b5060065461018090600160a81b900460ff1681565b3480156102f0575f80fd5b506101126102ff366004610aa8565b6107c9565b34801561030f575f80fd5b5061011261080b565b335f9081526007602052604090205460ff16610332575f80fd5b600580546001600160a01b0393841673ffffffffffffffffffffffffffffffffffffffff199182161790915560068054929093169116179055565b335f9081526007602052604090205460ff166103d05760405162461bcd60e51b815260206004820152600c60248201527f556e617574686f72697a6564000000000000000000000000000000000000000060448201526064015b60405180910390fd5b7f00000000000000000000000000000000000000000000000000000000000000006103fb8284610b52565b146104485760405162461bcd60e51b815260206004820152601460248201527f496e76616c6964207368617265732073706c697400000000000000000000000060448201526064016103c7565b600191909155600255565b600354335f818152600860205260409020548692869286928692600192916001600160a01b03909116907f0000000000000000000000000000000000000000000000000000000000000000906104a99089610b52565b6040516bffffffffffffffffffffffff19606095861b811660208301529390941b9092166034840152101560f81b604882015260490160408051601f198184030181529082905280516020918201207f19457468657265756d205369676e6564204d6573736167653a0a33320000000091830191909152603c820152605c0160408051601f1981840301815282825280516020918201205f84529083018083525260ff861690820152606081018490526080810183905260a0016020604051602081039080840390855afa158015610583573d5f803e3d5ffd5b5050604051601f1901516004546001600160a01b0390811691161490506105ec5760405162461bcd60e51b815260206004820152601160248201527f496e76616c6964207369676e617475726500000000000000000000000000000060448201526064016103c7565b600654600160a01b900460ff166106455760405162461bcd60e51b815260206004820152601360248201527f50726976617465204d696e7420636c6f7365640000000000000000000000000060448201526064016103c7565b335f90815260086020526040812080548a9290610663908490610b52565b90915550610672905088610861565b5050505050505050565b600654600160a81b900460ff166106d55760405162461bcd60e51b815260206004820152601260248201527f5075626c6963204d696e7420636c6f736564000000000000000000000000000060448201526064016103c7565b6106de81610861565b50565b335f9081526007602052604090205460ff166106fb575f80fd5b6003805473ffffffffffffffffffffffffffffffffffffffff19166001600160a01b0392909216919091179055565b335f9081526007602052604090205460ff16610744575f80fd5b6004805473ffffffffffffffffffffffffffffffffffffffff19166001600160a01b0392909216919091179055565b335f9081526007602052604090205460ff1661078d575f80fd5b600680547fffffffffffffffffffff00ffffffffffffffffffffffffffffffffffffffffff8116600160a81b9182900460ff1615909102179055565b335f9081526007602052604090205460ff166107e3575f80fd5b6001600160a01b03165f908152600760205260409020805460ff19811660ff90911615179055565b335f9081526007602052604090205460ff16610825575f80fd5b600680547fffffffffffffffffffffff00ffffffffffffffffffffffffffffffffffffffff8116600160a01b9182900460ff1615909102179055565b5f815f5461086f9190610b6b565b9050803410156108c15760405162461bcd60e51b815260206004820152601060248201527f4e6f7420656e6f7567682066756e64730000000000000000000000000000000060448201526064016103c7565b6005546001545f916001600160a01b0316906108fc907f0000000000000000000000000000000000000000000000000000000000000000906109039086610b6b565b61090d9190610b82565b6040518115909202915f818181858888f193505050509050806109725760405162461bcd60e51b815260206004820152601160248201527f5472616e736665722031206661696c656400000000000000000000000000000060448201526064016103c7565b6006546040515f916001600160a01b0316904780156108fc029184818181858888f193505050509050806109e85760405162461bcd60e51b815260206004820152601160248201527f5472616e736665722032206661696c656400000000000000000000000000000060448201526064016103c7565b6003546040517f40c10f19000000000000000000000000000000000000000000000000000000008152336004820152602481018690526001600160a01b03909116906340c10f19906044015f604051808303815f87803b158015610a4a575f80fd5b505af1158015610672573d5f803e3d5ffd5b80356001600160a01b0381168114610a72575f80fd5b919050565b5f8060408385031215610a88575f80fd5b610a9183610a5c565b9150610a9f60208401610a5c565b90509250929050565b5f60208284031215610ab8575f80fd5b610ac182610a5c565b9392505050565b5f8060408385031215610ad9575f80fd5b50508035926020909101359150565b5f805f8060808587031215610afb575f80fd5b84359350602085013560ff81168114610b12575f80fd5b93969395505050506040820135916060013590565b5f60208284031215610b37575f80fd5b5035919050565b634e487b7160e01b5f52601160045260245ffd5b80820180821115610b6557610b65610b3e565b92915050565b8082028115828204841417610b6557610b65610b3e565b5f82610b9c57634e487b7160e01b5f52601260045260245ffd5b50049056fea2646970667358221220695c666d6692d80c091fc2995d2673b2a5bf63dd09642ed295e91f9f498c8c6b64736f6c63430008180033",
  "linkReferences": {},
  "deployedLinkReferences": {}
}